:020000040000FA
:10000000402B0020D5160000BD160000D1160000C0
:1000100000000000000000000000000000000000E0
:10002000000000000000000000000000BD160000FD
:100030000000000000000000BD1600005510000088
:10004000BD160000BD160000BD160000BD16000064
:10005000BD160000BD160000BD160000BD16000054
:10006000BD160000BD160000BD160000BD16000044
:10007000BD160000BD160000BD160000BD16000034
:10008000BD160000BD160000BD160000BD16000024
:10009000BD1600000000000000000000BD160000BA
:1000A000BD160000BD160000BD160000BD16000004
:1000B00000000000F8B5394D00AFAB68002B00D050
:1000C000FEE701F053FC364B1E68364BF218F8235E
:1000D0009B029A4214D8344B344A1968344C354B3D
:1000E000914238D11978344AC90702D42168914223
:1000F00031D0324B22601B68314A2D33FF331360FD
:10010000012400F041FF2F4B1C70BFF35F8F62B6DC
:1001100000F01EFC0A2001F031FC00232A4E33704F
:1001200000F0CCF9294D00280FD02B78DBB2002B42
:100130000AD1A020224A0001136001F01FFC002315
:10014000F356002B00D134702C702B78002BE7D0A5
:1001500001F068F9FCE71B78DB07DB0F0DD000230B
:10016000802223601A4B12055A6180239B011A6872
:1001700082F30888AB603047C2E72168154A914294
:1001800001D12360BCE721680B4B9942E7D0FA20EC
:100190002260400001F020FBE1E7C04600ED00E0F6
:1001A0000420000000E0FFFFB42000007CB0EE87D8
:1001B000FC7F002038040040EF6926F0340B00205B
:1001C000380B0020A4000020D8000020DC00002014
:1001D00000440041EF6916F0202370B5364A0F2025
:1001E000D1690B43D361012234490B7813430B705F
:1001F000334B19788143197006211C7821431970FB
:1002000030490C7822430A701A7802401A70602232
:1002100019780A431A702C4B2C4A5A805A7852B2D9
:10022000002AFBDB01222A4B19780A431A709A78BC
:10023000D207FCD41F2027490A68520B0240824291
:1002400000D105221C8D244D024092012C402243F6
:100250001A850A68920C02401F2A00D1023A1F2414
:10026000188D2240A043024307201A850A68D20D48
:100270000240824200D10322198D02401748120326
:1002800001400A437F211A851A7815480A401A70DE
:10029000042219780A430C211A7058621A898A4379
:1002A0001A811A890B398A431A818022002152004F
:1002B00001F079FB70BDC046000400405844004185
:1002C0003C44004159440041000C004006400000FD
:1002D00000500041246080003FF8FFFFFF8FFFFFC8
:1002E000AC070020F7B51C00314B06005B6A0F001D
:1002F00015000193002C05D1443454432D4BE418D0
:1003000001F0A4FA63782278934210D2D51ABD4244
:1003100000D93D00002E08D0211DC9182A00300048
:1003200001F038FB63785B1963702800FEBD019B08
:10033000A1786A01D318002911D1211D19605968CB
:100340001D48890B890359605968014059601B4950
:10035000551840212879014329710121A1701449C0
:1003600000255118019116495218127AD207DCD58E
:100370005D68A278EDB22570022A04D11968201DAB
:100380002A0001F007FBBD4200D93D00002E0CD031
:100390006570211D2A00300001F0FCFA0122019B4A
:1003A000FF331A720023A370BFE76670F6E7C046FA
:1003B00000500041AC080020FF3F00F00051004118
:1003C000FF50004110B50023FFF78CFF10BDF8B5BA
:1003D00005000C0016001F00002C00D1F8BD210004
:1003E00028003B003200FFF77DFF241A2D18F3E7A9
:1003F000F8B50E001F4955014C6A2C19002B1CD072
:1004000063695B005B08636120616369B2049B0BF5
:10041000920C9B03134363616369174A8021134065
:100420006361164BEA18022313729171134AAD18D7
:100430002A7A1A42FCD03000F8BD012163695B00C2
:100440005B0F03339940B14208D8043A531E9A41D6
:100450006369D2075B005B081343D4E74427574323
:10046000074A0437BF1801003200380001F092FA41
:100470003800C9E700500041FF3F00F0FF50004145
:10048000AC08002010B50023FFF7B2FF10BD00003C
:10049000054B10B51B888B4200D90B0000221900B8
:1004A000FFF7F0FF10BDC046DE00002007B50022B8
:1004B0006B461100D81DFFF7E5FF07BDF0B597B0FB
:1004C00001F0C4F90823C44CC449A28B1A4002921B
:1004D0002FD011224020A3837833A372C0244A7006
:1004E00088714B71BE4BBF4D5A68A4052A40224308
:1004F0005A605A692A401443BB4A5C611A60BB4A7D
:10050000BB4C1A615A6814408022920222435A60FE
:100510005A68920B92035A600023B64A48711370CE
:10052000B54A1360B34B1878431E9841C0B217B058
:10053000F0BD10220B7A1342F4D0B04D0A72EE795E
:10054000AF7932023A4312B201926A469288AB887E
:1005500000926A7A287A1202104300B282B20392A1
:10056000EA7AAD7A12021543A54A15804025A54ABC
:100570004D7193422AD049D881246400A34200D10E
:10058000A3E117D8822B00D17FE108D8802B00D1BE
:100590006FE1812B00D172E120238B71C2E78022B1
:1005A00052009342F8D00222FF329342F4D1FFF777
:1005B0007DFFB7E7C024A400A342EDD00DD8A2224E
:1005C000FF32934202D0904A9342E5D100210822A3
:1005D00004A801F0E8F908216EE18C4CA342E6D0B2
:1005E0008B4CA342D8D1009B002BD5D10F3382B2C4
:1005F0001A40531E062BCFD80832774B5201D2181F
:10060000030600D45FE120235371D0E7814A93426F
:10061000CDD000D982E0804A934210D8013A93426B
:1006200000D395E0813AFF3A9342B5D1FFF73EFF00
:100630008023019A5B421343DBB2A37272E78822E4
:100640006C481201934200D111E180329342A3D150
:100650006B461B7930260370FFF728FF03239C4667
:1006600062463E33FF33E254C0225D4B5D49586C15
:1006700092050840104358644620FF3025546748CF
:1006800067461864902040002654586B8026084026
:100690001043586392204000265461481863B020EC
:1006A00040002554586F08405867B2204000265437
:1006B0003C302754FC3884469C44604667460068BA
:1006C000084010433860A620FF3025541800554FCD
:1006D000A0300760C0203027400027541F00943707
:1006E0003868084010433860C22040002654180083
:1006F0004D4F90300760E0204427400027540430DD
:10070000255426541C00C4342068D43308401043B8
:100710002060186801400A431A6003E7434A934285
:1007200000D144E705D8424A934200D13FE7414A0D
:100730003BE7414A934200D139E7404A934200D116
:10074000F8E03F4A934200D026E708213D4806E002
:100750008023009A5B009A4204D112213A48FFF7A5
:1007600097FEDFE68023009A9B009A4202D1822105
:100770003648F4E7032E2AD1032F00D90CE748228C
:10078000002104A801F00FF904AB5E70002F0AD11C
:10079000042304AA1370092204A98A70CB7004AB45
:1007A00019781800DBE72A4BBF00FC58200001F045
:1007B00002F9013004AB4000187000235A1CE35CBE
:1007C000002BECD0510004A843541300F6E70F2E81
:1007D00042D105211F48C2E700500041FF500041AF
:1007E000AC070020FFFFFF8F6C070020B00800203F
:1007F000FF3F00F0DD0000205807002068070020C0
:10080000DE000020A1030000A1020000010300009F
:1008100002030000210900008106000038090020C1
:10082000F4080020040A0020C00900202120000054
:10083000210A0000210B000021220000A1FE00007F
:10084000A121000098000020C41900000800002029
:10085000141A000000000020212E02D1092138487E
:100860007DE7222E00D097E62121364877E7012147
:1008700075E76A46128904AB1A80022191E70023CA
:10088000022104AA1380100069E76A46128904ABAA
:100890001A800F2382B21A40072A00D97CE6083258
:1008A00041335201184209D0274BD21893799B0645
:1008B0000221DB0F04AA138004A850E7224BD218B0
:1008C0009379DB06F4E710239EE6009B002B00D013
:1008D00062E60F3382B21A40531E062B00D95BE644
:1008E0005201030613D51949174BD318521820216A
:1008F000D079084200D15AE65171127A2A4200D1C9
:1009000055E64022FF331A723E3A5A714FE61020E4
:100910000E490D4BD3185218D179014200D146E649
:100920005071117A2022114200D140E6FF331A7231
:100930001F3AEAE7002304AA13800121A3E7C04677
:100940008C000020D819000000500041FF500041E9
:1009500010B5FFF741FC0022034B1A700223034A33
:1009600011780B43137010BDDD00002000500041D2
:1009700010B50C000122FFF785FD200010BD10B559
:100980000C000122FFF77EFD200010BD70B50400B1
:100990000D00FFF793FD03000020834204D00222E4
:1009A00029002000FFF70EFD70BD70B505000C009A
:1009B000FFF784FD002807D0002302222100280031
:1009C000FFF705FD200070BD0400FBE730B5030014
:1009D00020251C1AA24200DC30BD0C78002C03D06C
:1009E00001311C700133F4E71D70FBE7F8B580227C
:1009F0000C00050092000021200000F0D4FF002D23
:100A00000CD13E224E49200000F0C4FFFF235522A6
:100A10005B00E2544B4B9218E254F8BD402D33D8A2
:100A20006B1E1F2B00D9203B002B0AD110225242F3
:100A300022800F326280A280E28005322281424A07
:100A40006281F0261B025A1C581C404D404F92B246
:100A5000FF30FF36191FA94204D81100BB4200D154
:100A60003C4921803C495918B14206D83B498C4643
:100A70001100634500D1374921800132013392B220
:100A800002348342E6D1C8E7442D24D8412DC4D195
:100A90002B490B222B312000FFF798FF304E2823E3
:100AA0003500E37210357036B542B6D029002B7888
:100AB000203423776B7810396377AB780B22A377D8
:100AC000EB782000E377AB881835A3761B0AE37632
:100AD000FFF77CFFE8E72A00453A012A0BD81823E4
:100AE0005A431F4B9B18DD68280000F064FF290063
:100AF0000200200016E02B00144A473B934214D812
:100B0000184A19482260194A19026260FE225200EE
:100B1000A050636180232000DB00FC3AA361E16008
:100B20002261203000F036FF77E7114BE918114BB6
:100B30004902994200D970E780229200D9E7C04665
:100B4000241A0000FF01000004040000FF0300005D
:100B500003040000FFFF0000FCFBFFFFF3050000A3
:100B6000CC1A00005546320A306FB10A57515D9ECB
:100B7000C9FBFFFFFFFF0300F8B517001E000A685E
:100B80004D4B0C009A4275D14C4B4A689A4271D138
:100B9000FE2252004A4B8A589A426BD18B68DB077F
:100BA00011D4802322695B009A420CD1E068C3B261
:100BB000002B08D1434B444AC318934203D8210069
:100BC000203100F0DBF8002E4DD0A369002B4AD075
:100BD00031683E4A8B4206D0934201D8002901D0A9
:100BE00001235B4233606369934264D80721012289
:100BF00019408A40DB08F318197AD2B2114204D1A5
:100C00000A431A72736801337360726833689A42D8
:100C100051D3002F4FD12E4B1B681E332D4A13602A
:100C200049E0FF2B47D9106015682B4B451B103549
:100C30006D029D423FD82100280000F09FF8611C02
:100C4000681CFF31FF3000F099F834E0002B32DBF4
:100C500001235B4213601E4B1E4A1B6896331360D0
:100C600000230B6027E0002F25D1194B1B682D3383
:100C7000FF33D3E719491A4B0A689A421BD9194A1C
:100C800013684428E2D9002BCEDA230021000F3369
:100C90002B311D78002D0ED101338B42F9D1124B2F
:100CA000E51829780139C9B2FD29BAD9013B9BB2AF
:100CB000013D002BF5D1F8BD5546320A57515D9ED6
:100CC000306FB10A00E0FFFFFFDF030063040000A4
:100CD000340B0020380B0020FFFF030058070020D2
:100CE0007F320200A0000020FF010000074B1A0025
:100CF000197DC907FCD52021FF311983044940081B
:100D0000D8611980137DDB07FCD570470040004196
:100D100002A5FFFF002330B59A4200D130BD9C00F0
:100D20000D5901330551F7E7F0B58025104B114EF1
:100D30005C68114FAC435C60002A00D1F0BD140028
:100D4000102A00D91024121B1E801D7DED07FCD532
:100D5000A400A44600240D59055104346445FAD179
:100D6000001909191F801C7DE407FCD5E4E7C04683
:100D70000040004144A5FFFF04A5FFFF802270B59D
:100D8000002304000D005200E958E058814203D1CD
:100D900004339342F8D170BD2000FFF7A7FF402233
:100DA00029002000FFF7C0FFF5E7F8B5030047333F
:100DB00004001A78402103000020FFF793FA00286E
:100DC00001D10020F8BD0023257923706BB2002BE0
:100DD000F7DB3F272000A61DF38F2F404830C018B7
:100DE000611D3A0000F0D6FD3F23F08F9D43C019EE
:100DF00080B2002D01D1F087E3E70023F387E1E71C
:100E0000F0B50C001F00060093B001923F25AC42E4
:100E100003DC2500002F00D140373B0002AA2B4302
:100E2000137002AB31002A00581C00F0B3FD6B4672
:100E300040211A7902A80123FFF7DAFA7619641B18
:100E4000E4D113B0F0BD030010B547331A78043174
:100E500048300023FFF7D4FF10BD0000F7B50400B1
:100E6000FFF7A3FF00283FD0230048339A88A06CE7
:100E70001A80002201385A80082862D800F080FDCC
:100E8000150521252328453C35002F4E300000F064
:100E900092FD0500200031004C302A0000F07AFD60
:100EA00029002000FFF7CFFF1EE00123E364FF339A
:100EB00023658023DB006365A0235B00A36510210D
:100EC000EFE700F0AFFC0021EBE700F0DFFCFAE712
:100ED00020000021FFF7B7FF206D1C4B984203D97B
:100EE00021005431FFF74AFFF7BD2100626D5831F0
:100EF000206DFFF70FFFE6E72000656D216D4C3098
:100F00002A00FFF707FFA900CBE727000026636D43
:100F1000256D00934C37009BB34201DC5900C0E7BC
:100F200000216B1CFF330193287800F02BFC019B00
:100F300001350100AB42F7D13880013602371D0080
:100F4000E9E701225A80BEE72C1B0000FF1F0000CA
:100F500004480622030010B547331A70FFF77EFFDE
:100F600010BDC046E0000020024A53785BB2002B5F
:100F7000FBDB7047000C004010230249CA681A428C
:100F8000FCD07047000800401E21F8B50226254A13
:100F9000254C5368254D8B4333435360A660FFF7C0
:100FA000E3FF234B6360FFF7DFFFAE84FFF7E4FF4F
:100FB000204B1B689B0E3F2B00D1203B00260227B5
:100FC0001D4A9B0213431D4AEA62AB62AE84FFF7DF
:100FD000D3FF1B4BAB84FFF7CFFFAB8C3B43AB8402
:100FE000FFF7CAFF3F226388934380221F43678035
:100FF0006388D20113436380A660FFF7B5FF114BEE
:101000006360FFF7B1FFC0210F4A104B10485360D7
:10101000036A09061B021B0A0B430362072396603F
:101020001360F8BD00400041000C00400008004083
:101030000600010024608000FF01000080BB0A1C44
:10104000240500000007030010E000E0E7030000B3
:1010500000ED00E010B500F02DFC10BD10B5054C02
:1010600012220021200000F09EFCF0232370E63BBA
:10107000E37110BDA304002070B5130006000C003E
:10108000150000200A000121FFF72CF900239842E7
:1010900006D02B0022001F213000FFF723F9012387
:1010A000180070BD10B504220D210248FFF7EAF9BF
:1010B00010BDC046A500002010B50B480B49427971
:1010C000037912021A4383791B041A43C3791B065E
:1010D00013431A0A0B714A711A0C1B0E8A71CB71D9
:1010E000FFF7E0FF10BDC04684040020A5000020EB
:1010F00070B504220D00FFF7C5F9164C85420FD0DC
:10110000FFF7ACFF012304222373134B9A700022D4
:10111000DA701A715A719A711A735A73FFF7CCFF09
:10112000FFF79CFF00232373637A217A1B020B4392
:10113000A17A09040B43E17A09061943491B0B0AFA
:10114000217263720B0C090EA372E172FFF7B4FFF8
:1011500070BDC046A5000020A304002070B5194C46
:10116000002105001422200000F01DFC1649002D6E
:1011700021D022000823C87D08323F26497C314017
:101180001C2901D0B14207D11C21117012395170B4
:101190000C330539D170DBB2191C834200D9011C14
:1011A000C9B2002D0BD0023B9BB21B022380200052
:1011B000FFF79EFF70BDC87C221D0423DDE7013BC5
:1011C0002370F4E76804002084040020F7B52B4B5B
:1011D00001AA597C0700D170997C00249170D97CB8
:1011E0005170197D11706A46961C9A7D7270DB7D74
:1011F000337033889C4207D3FFF730FF0022204B27
:101200001A73FFF759FFF7BDFFF758F90028FAD016
:101210001C4D002F20D0019B2900E018FFF7E6FBB2
:101220008021042289002800FFF72CF9144A013498
:10123000517A137A09021943937A1B041943D37A1A
:101240001B060B4310495B18190A13725172190CD3
:101250001B0E9172D372CCE780213B00280005223F
:101260008900FFF7B4F8019B3A00E0182900074B0A
:10127000FFF782FC00F064FBD8E7C046840400203E
:10128000A50000206802002000FEFFFFB804002037
:10129000F0B587B0FFF75CFE484F0022052138000B
:1012A000FFF7EAFE002858D07B7A3A7A1B021A43ED
:1012B000BB7A434D1B041343FA7A002612061A43E5
:1012C0006B4601921B792B72130A6B72130CAB7273
:1012D000130EEB72FC7B1E2C1BD01ED8122C3ED0A2
:1012E00013D8B44250D0032C2ED0FFF7B7FE012301
:1012F00005222B73334B20219A7000221973DA7068
:101300001A715A719A715A7341E01A2C36D01B2CFB
:10131000EBD1FFF7A3FE2E7339E0282C3AD00BD87F
:10132000232C3BD0252CE0D1802327489B0243600F
:10133000264B082103600EE02F2CEAD05A2C21D036
:101340002A2CD2D1300026E0FB7C191C122B00D9AC
:1013500012211C48C9B2FFF7CBFE07B0F0BD1C4CF0
:101360001C49200018220830FFF730FBFB7C191CB9
:10137000242B00D92421C9B22000ECE73000FFF76C
:10138000EDFEEAE70120FAE7FFF768FE2C73FFF7AE
:1013900093FEE2E70120FFF719FFDEE70C240E4978
:1013A000220003A800F0F6FA019BA34203D92C7295
:1013B0006E72AE72EE720C2103A8CCE7840400209A
:1013C000A5000020A30400207C04002000001F3F93
:1013D000B4000020021A0000861B000080B500AF98
:1013E00072B6BFF35F8F0022064B1A70EFF30883CB
:1013F000054A1360036883F3088843681847BD46AD
:1014000080BDC046A4000020280B002007B50100C5
:101410000122684600F0E8F908216846FFF7A8FABB
:1014200007BD000000227A23F0B58D4985B08D4CB0
:1014300000AF22600B70FA607B60FFF729FF8A4DD6
:1014400040212800FFF7A2FA884B18603B7B2B5401
:10145000002804D000F074FA854BFA681A60854BB6
:10146000FA681D60844B1A608348804B02681B68D1
:101470009C469A42E1D27F4D29680B78FF2B37D0EA
:101480007E4E232B00D0C8E0754B1B78532B34D1F4
:10149000013202606046336801312960821A9A4243
:1014A00000D91A00764D20682A6000F073FA72485D
:1014B000296803686F4ACB18013B036010684B1E14
:1014C000C31813606D4B6F4D1B682970C9B29942E8
:1014D00003D2591A2068FFF768FAC046604B3A7980
:1014E0001A70664BFA681A60624A13680133136017
:1014F000614A136801331360B6E7522B04D1316897
:101500002068FFF73CFAE9E74F2B03D133682268E4
:101510001370E3E7482B03D1336822681380DDE7BB
:10152000572B0AD1584B22689A4202D1574800F0F3
:1015300025FA236832681A60D0E76F2B04D10121A5
:101540002068FFF715FAC9E7682B05D10221236847
:101550001B8833603000F4E7772B04D12368042123
:101560001B683360F6E7472B12D13068FFF736FF70
:10157000474B1B6883F308880121464B1970BFF362
:101580005F8F62B6444B45481B78002BA6D0D8E746
:10159000542BA3D04E2BA1D0562B02D12A21404848
:1015A000CFE7582B0CD135683E4B9D4202D9032121
:1015B0003D48C6E728000135FFF798FBFF35F3E704
:1015C000592B0ED13268394B002A04D122681A6097
:1015D00003213748B5E7920819682068FFF7A4FB94
:1015E000F6E75A2B00D079E7336800262568EB1818
:1015F000BB60BB689D4209D101212E48FFF7B8F9B5
:101600003000FFF703FF03212B489AE728783100C9
:1016100000F0B8F801350600EBE71A00303AD1B215
:10162000092904D833681B01134333605CE71A00AF
:10163000413A052A03D83268373B1201F4E71A0011
:10164000613A052A03D83268573B1201ECE72C2B8C
:1016500003D133682360FB68E7E7014A1370FAE7B8
:10166000D80A0020240B0020E00A0020D00A002025
:1016700058070020D40A0020DC0A00202C0B002090
:10168000300B0020CC0A00200CED00E00A000A001C
:10169000280B0020A400002050050020BC1B0000E7
:1016A000921B0000FFFF0300BE1B0000540500203A
:1016B000C21B0000C61B0000C81B000082B0EFF375
:1016C00005833F221340103B5BB20193019BFEE771
:1016D000FEE700002048214970B5884204D000236D
:1016E0001F4CCA18A24230D300211E4B1E4A9342FF
:1016F0002FD3FF211D4B1E4A8B43936002220C25E2
:10170000082430261B4B1C485A62C378FC398B4393
:101710001343C370C378AB432343C370174B987B09
:10172000B0430600202030439873987BA8430443BD
:101730009C73987B884302439A738023104A5168B4
:101740000B435360FEF7B6FCFEE7C5580433156043
:10175000C7E702C3CBE7C046CC1B00000000002057
:10176000DC000020DC0000203C0B0020000000001A
:1017700000ED00E0FC7000410050004100480041D5
:10178000004000410022F0B5114E7388934216D1FB
:101790000824D3019BB21DB2AC4667465D00ABB2D4
:1017A000002F02DA0B4B5D40ABB2013CA4B2002C1F
:1017B000F1D1B352802302329B009A42E8D10B0A46
:1017C00058404000305A0902484080B2F0BDC0463F
:1017D000580500202110000001230002984200D883
:1017E0007047C0460133F9E7F0B506001C2500201C
:1017F0000F270C00EC403C40002A05D1002C03D1FF
:10180000002D01D0002809D0431C9C46331820002D
:101810003030092C00DD073018706046043D2B1D68
:10182000E7D1F0BD054A064B1A60BFF34F8F054A5A
:10183000054BDA60BFF34F8FFEE7C046EF6926F035
:10184000FC7F00200400FA0500ED00E00B4A10B513
:101850001368002B0ED10A4911600A490A68013247
:101860000A6009490868002806D0824204D30B6048
:10187000FFF7D8FF013B136010BDC046640700208E
:10188000DC050000340B0020380B0020054A064B15
:101890001A60BFF34F8F054A054BDA60BFF34F8FD5
:1018A000FEE7C046EF6916F0FC7F00200400FA0551
:1018B00000ED00E01B4A10B513681B4901331360AB
:1018C0001A4A1368013313600A68002A0CD01848BA
:1018D0001018834203D18024164824058461934262
:1018E00001D100230B6010BDDBB2134A002B11D1D4
:1018F0008021104B090599611378104918000A38A6
:10190000C0B2F02802D908784042087009785B1804
:101910001370E8E712789A42E5D18022054B120550
:101920005A61E0E758070020600700205C070020AC
:1019300018FCFFFF00440041D9000020D80000201F
:10194000074B084A1B681168994207D2FA21C9005F
:101950005B1813608022044B12055A617047C04621
:101960005C07002060070020004400418022024BF9
:1019700012059A609A617047004400417047000068
:1019800002B4714649084900095C49008E4402BC12
:101990007047C046002310B59A4200D110BDCC5C00
:1019A000C4540133F8E703008218934200D1704712
:1019B00019700133F9E70023C25C0133002AFBD11F
:1019C000581E704712010002EF020140D80466EF72
:1019D00001420102030100000697FF0901A1011560
:1019E0000026FF0075089540090181029540090114
:1019F000910295010901B102C073656E7365426F72
:101A0000780073656E7365426F78204D43550034DE
:101A10003234320000000000F9190000021A000000
:101A20000F1A0000EB3C90554632205546322000FC
:101A3000020101000240003E1FF8200001000100E9
:101A40000000000000000000000029420042005396
:101A5000454E5345424F5800000046415431362010
:101A600020203C21646F63747970652068746D6C0C
:101A70003E0A3C68746D6C3E3C626F64793E3C7318
:101A800063726970743E0A6C6F636174696F6E2E65
:101A90007265706C6163652822687474703A2F2FC8
:101AA0007777772E73656E7365626F782E64652223
:101AB000293B0A3C2F7363726970743E3C2F626F3E
:101AC00064793E3C2F68746D6C3E0A00494E464F67
:101AD0005F554632545854002C1B0000590000003A
:101AE00002000000494E44455820202048544D0033
:101AF000621A0000690000000300000043555252C2
:101B0000454E5420554632000000000000000800F9
:101B10000400000043555252454E542042494E00A5
:101B20000000000000E003000404000055463220DD
:101B3000426F6F746C6F616465722076312E32363D
:101B40002E302053464852420D0A4D6F64656C3A60
:101B50002073656E7365426F78204D43550D0A42C0
:101B60006F6172642D49443A2053414D44323147EC
:101B70003138412D53656E7365426F782D4D435555
:101B80002D76300D0A000000000800001F40020002
:101B9000020076312E31205B41726475696E6F3AB6
:101BA00058595A5D204D617920203120323031382A
:101BB0002031353A34353A31380A0D000600580ADA
:101BC0000D00590A0D005A00230A0D00050F0500EB
:101BD0000000000009028200040100800A080B00D6
:101BE00002020201000904000001020201000524B2
:101BF0000010010424020605240600010524010347
:101C000001070583030800FF09040100020A000020
:101C1000000705810240000007050202400000099C
:101C20000402000208065000070584024000000775
:101C3000050502400000090403000203000000093A
:101C40002100010001222100070586034000010751
:101C50000506034000010000090403000203000020
:101C60000300000000C2010000000800FFFFFFFFAA
:101C70000155534253000000000000000000000026
:101C800000800202200000000000000000000000B0
:101C90000000000000000000000000000000000044
:081CA000312E303001C80000B4
:101FF0000000000000000000000000002C1B00009A
:10200000008000202D7C0100157C0100157C010062
:1020100000000000000000000000000000000000C0
:10202000000000000000000000000000157C01001E
:102030000000000000000000157C0100817C010010
:10204000157C0100157C0100157C0100DD4E0100AE
:102050003D750100157C0100157C0100197C010013
:10206000157C010005580000157C01001558000082
:10207000355501004555010055550100157C0100FD
:10208000157C0100157C0100157C0100157C010008
:1020900000000000157C0100157C0100A94E010024
:1020A000157C0100157C0100157C0100157C0100E8
:1020B0000000000010B5064C2378002B07D1054B1B
:1020C000002B02D0044800E000BF0123237010BDA4
:1020D000D002002000000000E8380200044B10B5D8
:1020E000002B03D00349044800E000BF10BDC046E8
:1020F00000000000D4020020E838020010B50248B9
:1021000000F082FD10BDC0461042002070B5FA24D8
:1021100005000221152015F0ABFF0121172015F055
:10212000A7FF01211C2015F0A3FF0121172015F0A6
:10213000EBFF01211C2015F0E7FF0121072015F01E
:1021400097FF0121082015F093FF0221002015F0D0
:102150008FFF0021082015F0D7FF0021072015F080
:10216000D3FF01210E2015F083FF01210E2015F071
:10217000CBFF0121092015F07BFF0121092015F07B
:10218000C3FF02210B2015F073FF01210A2015F077
:102190006FFF02210D2015F06BFF01210C2015F0BF
:1021A00067FF0121162015F063FF0021162015F0AE
:1021B000ABFF0221182015F05BFF02211A2015F059
:1021C00057FF64000121192015F052FF200015F07F
:1021D0009BFD01211B2015F04BFF00211B2015F05A
:1021E00093FF02211D2015F043FF02211F2015F04F
:1021F0003FFF01211E2015F03BFF200015F084FD5C
:10220000280070BD10B5040001210E2015F030FF2C
:1022100000210E2015F078FF0121092015F028FF7C
:1022200003210B2015F024FF03210A2015F020FFC5
:1022300003210D2015F01CFF03210C2015F018FFC1
:102240000021092015F060FF0121162015F010FF74
:102250000121172015F058FF0321182015F008FF61
:1022600003211A2015F004FF0321192015F000FFA7
:102270000121162015F048FF01211B2015F0F8FE62
:1022800001211C2015F040FF03211D2015F0F0FE58
:1022900003211F2015F0ECFE03211E2015F0E8FE9F
:1022A00001211B2015F030FF0A4B0B48E118CB43EE
:1022B000DB17194012F0F3FDFA20800015F024FD21
:1022C00072B6BFF34F8F054B054ADA60BFF34F8FED
:1022D000C046FDE718FCFFFFDC51002000ED00E0E8
:1022E0000400FA0530B5054C054A2378DD00A850F6
:1022F000013352195160237030BDC046F0410020B7
:10230000D8410020F7B500240D4B1A78A24214D909
:102310000C4EE700F319586817F0FEFF0A4D0090C5
:102320000191BA590949280019F02EFB01342900FE
:10233000074815F0BEFBE4B2E6E700221A70F7BDCD
:10234000F0410020D8410020FC0200200AE10100F9
:10235000F005002070B50948FFF7D8FE084D2800A9
:1023600000F05EFD074C2900200003F0FBFB064A4D
:102370000649200015F0A2FF70BDC046EC02002007
:10238000FC410020F005002000000020D159000091
:1023900070B5364C3221200003F02EF8200003F0F7
:1023A00037F802250300AB43DBB2314A002B4AD198
:1023B00043425841322110700422200003F016F8E5
:1023C000200003F08FF9FF26304017F039FF294A2B
:1023D000294B17F029F917F0F1FF284B186020005E
:1023E00003F080F9304017F02BFF254A254B17F0FA
:1023F0001BF917F0E3FF244B1860200003F072F97B
:10240000224B820602D504221A6006E0C20601D5DC
:102410000322F9E7020711D51D601D4A4306DB0FB1
:102420001370C0B21B4BC0091870200003F05AF99A
:1024300040B216F089F9184B186070BD04220240B2
:10244000E2D00122E0E7002301211370104A494243
:102450001370104A1370114B084A13600A4A136034
:102460000A4A11600C4A1360E7E7C046184500208D
:10247000F14100207B14AE47E17A943FF80200203E
:102480009A9999999999B93FF4410020F002002056
:10249000EE020020ED020020F4020020000080BFC8
:1024A000F0B5414C89B0200000F052FA03280ED05C
:1024B000200000F02DFAFA20800015F025FC3B4AA0
:1024C0003B49200000F0BEF93A4815F01DFC3A4C9B
:1024D000200003F0F5FA002806D0200003F002FBEC
:1024E000FA20800015F010FC344D02A82900FA27CC
:1024F00019F074FA0226BF003149324815F0EAFAA1
:10250000BC2202A9FF32200003F030FC002836D0A4
:1025100023232D4E2D4F32782D49534338002D4A19
:1025200000932B0019F030FA3900200015F0C1FAA1
:10253000F625FFF7E7FE200015F0C4FAFF350A2064
:1025400015F0E2FB200003F095FA002803D1013DCD
:10255000ADB2002DF3D1200003F08CFA00280AD090
:10256000200003F0F5F9200003F0AAFA0028F2D1C8
:10257000200003F0B7FA0023337009B0F0BD380033
:1025800015F0C2FB012E01D00126B5E7094815F070
:10259000BBFB72B6BFF34F8F0F4B104ADA60BFF32D
:1025A0004F8FC046FDE7C0461042002004000020C7
:1025B0001300002088130000F005002078E10100DE
:1025C00048E001000C590020F0410020FC020020EE
:1025D00056E0010014E1010000ED00E00400FA05FE
:1025E00010B5FFF7D5FE0E4B0E481968FFF77AFEBF
:1025F0000D4C206816F0A8F8011C0C48FFF772FE7D
:102600000B4B0C481968FFF76DFEFFF749FF236875
:10261000022B02DD0848FFF7F5FD0848FBE7C0463E
:10262000F80200202DE10100F002002046E1010047
:10263000F44100205FE10100C02709000097490133
:1026400070B50F4D280000F083F9FF2800D1FEE798
:102650000C4C2368032B09D00B4A0C49280000F0CE
:10266000F1F820600A4815F04FFBF1E7094802F045
:10267000FFFEFFF78DFE0849084803F048F970BDDA
:1026800010420020F8410020040000201300002028
:102690008813000018450020FD200000A44B0020F6
:1026A000014B19627047C0461042002010B502F07D
:1026B00081FE10BD30B587B0040000F089FC134BDB
:1026C0006846009301F0C2F8051E02D003000D33E6
:1026D00019D102F061F90E490E4802F079F9210092
:1026E00000230122293122600B70E2610A4A236132
:1026F0006361A361236263621268084B9A4202D944
:10270000D32000F089FF280007B030BD952B0000D2
:10271000A1260000AD260000A04200204F130000BB
:10272000F8B503680400002B01D1FFF7C3FFE3698C
:10273000002B03D0002323616361A361250001F016
:10274000C1F82935002802DA04202870F8BD0023DA
:1027500026002B7028360133337015F09FFA0700DE
:1027600015F09CFA236FC01B984206D2002001F09E
:10277000A5F807222B781342F2D0200021224D30F9
:10278000002118F01EF903222B78134002D1337078
:102790002878DBE701F098F9002001F08FF8F7E7DF
:1027A000F0B51F00036885B004000D001600002B73
:1027B00001D1FFF77FFFE369002B03D000232361E2
:1027C0006361A361280019F011F9FF23C1B20093DE
:1027D00032003B002800260001F00BF929360028C2
:1027E00005DA042333701E00300005B0F0BD00236D
:1027F00027003370283701333B7015F04FFA0390F0
:1028000015F04CFA039BC01A236F984206D20020A1
:1028100001F054F8072233781342F1D003233678BD
:10282000334000D13B704D3421220021200018F0AC
:10283000C8F8280019F0DAF829000200200018F082
:10284000A4F8D1E710B513000222FFF7A9FF10BDCD
:10285000F0B51F000368A5B004000D001600002BA2
:1028600001D1FFF727FF8822002102A818F0A9F85C
:10287000290002A819F0B2F802AB0233DF773F2338
:102880000122002702A95B181A70412012AB1F70A9
:10289000C02309180B7002A97E3B5B18A821197090
:1028A000432302A95B181A70310013AB02A81A70F7
:1028B000260001F0C1F82936B84203DA0B20307047
:1028C00025B0F0BD0A2333702300022228331A708A
:1028D000253318001F323900019318F072F82800D0
:1028E00019F084F829000200019818F04EF84123ED
:1028F000200002A95B1810301900042200F032FCFD
:10290000024B63612369A3613078D9E7FFFFFF00C1
:1029100010B5002461B20448013402F0CFFB0B2C47
:10292000F8D101F06FF810BDAC42002037B56D460C
:1029300008000C0001F072F8280001F06FF8002385
:10294000EA1A5279E2540133062BF9D120003EBD38
:1029500010B503680400002B01D1FFF7ABFE29344A
:10296000002000F0ABFF207810BD000030B587B02C
:1029700004000D00FFF7D4FE032811D069462000A3
:10298000FFF7D4FF6B466A461B785278074902A8C6
:1029900018F0FAFF2B00064A02A92000FFF758FFA3
:1029A0002000FFF7D5FF07B030BDC04691E1010020
:1029B000A2E1010010B50121FFF7D8FF10BD000012
:1029C000F0B5040085B01500132900D1A1E011D89D
:1029D000062900D1C8E003D8042965D005B0F0BDB0
:1029E000092965D01129F9D11378002BF6D02934A3
:1029F000022325E02A291DD00AD81B29EED1006A1E
:102A00000028EBD00822290017F0BFFF00234DE07B
:102A10002C2917D03229E1D1030028331B78012B50
:102A2000DCD1136829340361D3684361536883613F
:102A3000032305E00023D356002BCFD006232934EF
:102A40002370CBE71378012B0FD1030028331B78B9
:102A5000012B05D1C369002BC0D129340333EFE723
:102A6000032BBBD129340533EAE7002BB6D1020092
:102A700028321278012A12D102000621293211705F
:102A8000C269002A02D0036143618361002461B2FC
:102A90003F48013402F012FB0B2CF8D19EE7032AC9
:102AA0009CD129340723CBE70023D356236295E733
:102AB000130063331E78002E24D107004D373100F8
:102AC0002122380017F07DFF280018F08FFF290021
:102AD0000200380017F059FF2300012228331A7032
:102AE000280026616661A66118F080FF2A002B008D
:102AF000C1B2FF206232127821330090280000F02A
:102B000078FF6BE703000B2229331A70FFF752FF9F
:102B100064E713000A331800039318F067FF2700D7
:102B200006002A3721220021380017F04AFFB3B2ED
:102B3000002B04D01A000399380017F026FF636AAF
:102B4000002B07D00023EA1A527A616ACA54013373
:102B5000062BF8D10123EB5623622300AA784B33CE
:102B60001A70EA785A7042E7436A002B0AD00023B1
:102B70002B321178606A013AC1540133062BF8D127
:102B800000236362200029004D3018F027FF25E75D
:102B9000AC42002010B50A0001000248FFF710FF08
:102BA00010BDC04610420020F8B5040010000E0011
:102BB000150014F0A7FE0123002806D12062300082
:102BC00002F098F8002802DA00231800F8BD15F08A
:102BD00065F80700266A002E09D115F05FF8094B49
:102BE000C01B984203D8300000F068FEF2E7216A6B
:102BF0000029E9D0280014F091FE0023236201335C
:102C0000E3E7C0461F4E000070B58CB001AC046213
:102C1000050000F065FF15F041F806002B6A002B57
:102C200009D015F03BF8134B801B984203D80020C5
:102C300000F044FEF2E700202B6A834216D123887D
:102C4000834213D00C4A03A89B180893A378013B36
:102C50000793E37806932379059363790493A37923
:102C6000039301235B420B9317F07EFF00232B623B
:102C70000CB070BD8713000094F8FFFF064B0022D4
:102C8000190028310A701A601A00FF2129321170C8
:102C9000024A1A677047C0461042002060EA0000EE
:102CA0000020704713B56B460268D971073354682A
:102CB00019000122A04716BD13B56B46DC1D036841
:102CC00001225B6A21009847012801D1207816BDB6
:102CD00001204042FBE77047007C40B20130431EB8
:102CE0009841C0B270470000102110B54156040051
:102CF000002904DB024802F0E1F9FF23237410BD30
:102D0000AC420020102110B5415600204B1C02D0CF
:102D1000014802F08CF910BDAC420020036870B588
:102D20001B6904000D001600984780B2002807D0E8
:102D30001021330061562A00034802F05AFA70BD90
:102D400001204042FBE7C046AC420020036810B5BA
:102D50001B6904009847002805D0102103486156DC
:102D600002F01CFA10BD01204042FBE7AC420020FB
:102D7000102110B541560020814202DB014802F0CB
:102D800047F910BDAC420020102213B58A5604004A
:102D9000531C07D1002100910B000A0014F0CAFC5B
:102DA000200016BD014902F056F9F9E7AC420020B7
:102DB000102170B54156060000204B1C0DD0074D68
:102DC000280002F052F9102104007156280002F088
:102DD0004CF924020012204380B270BDAC420020A6
:102DE00070B5037C04000E0015007F2B06D8002A66
:102DF00004D00368DB6A9847002804D1012300252A
:102E00006360280070BD10212B006156320003481A
:102E100002F030F90028F4DCF0E7C046AC420020B4
:102E200000234360FA239B008360034B0833036055
:102E3000FF2303747047C046ACE10100F0B589B0D0
:102E40000393022304AE3380002352BA72800A7DBA
:102E500004009A4200D10B69736023682000DB6A8A
:102E60009847002803D0236820009B6A9847194D93
:102E7000039B01220221280002F072F8070020744F
:102E80000020874224DB039BDB070ED50E9B834289
:102E90000BD0180000F078F90E9B019000930223EC
:102EA00039001A00280002F06CF810213200615637
:102EB0001023280002F070F806000120002E07D130
:102EC00010212800615602F0F9F8FF233000237426
:102ED00009B0F0BDAC420020F0B50D00094B89B03F
:102EE00002932C1D03AB9446C4CCC4C3246802A92E
:102EF0001C602B7D62460B7500230093FFF79EFF3D
:102F000009B0F0BD84340200F0B50D0093B006ACFA
:102F1000039020000492059314F004FC2200290081
:102F20000B48FFF741FE002810D00A4B07AA0C936C
:102F30000DABC1CAC1C312680CA91A60237D049AE3
:102F40000B7503980095059BFFF778FF13B0F0BD54
:102F5000104200208434020010B50023FFF7D4FF94
:102F600010BD0000034B10B51B68002B00D0984724
:102F700010BDC0468442002010B5D2B2C0B214F0D9
:102F80000BFA10BD10B5C0B214F09EFA10BD10B50A
:102F90000400013C00D210BD012014F0B5FEF8E79A
:102FA000002010B5094C205600280DDB0021C0B2CE
:102FB00015F0AAF86420FFF7EAFF2078012115F048
:102FC000A3F86420FFF7E3FF10BDC0461F000020F8
:102FD0000022002010B5104B104C1A602056904271
:102FE00007DBC0B2012115F043F82078012115F06C
:102FF0008BF80B4B0021187815F03AF80020094B9C
:103000001856002803DBC0B2022115F031F8FFF793
:10301000C7FF002010BDC046844200201F000020D2
:103020001E0000201C000020054B10B51860002079
:10303000044B032218560449FFF79EFF10BDC046FB
:10304000844200201E000020652F000003000020A5
:1030500010B5064A1056002B04D003220449FFF78E
:103060008BFF10BDFFF78EFFFBE7C0461E00002060
:10307000652F0000034B044A1A6000221A710132C6
:103080005A71704788420020001BB70010B50948EC
:1030900012F0DEF9084C0121207814F0E9FF2078C5
:1030A000012115F031F8FFF77BFF0120FFF76FFFDB
:1030B000002010BDE85100201D000020F0B585B0B3
:1030C00003283ED1002202AB0D6807330C894E68FD
:1030D0001A70954222D0964230D101961E000132DC
:1030E0000092194B194F06CB380012F0D9F9184B42
:1030F0000021187815F008F8002C14D02978380031
:1031000012F0D7F8009B30705A425341F618019BD9
:10311000013C5A425341A4B2ED18EDE7012200955B
:1031200001921D00DDE70A4B0121187814F0ECFF35
:10313000380012F035F9200005B0F0BD06204042FD
:10314000FAE70120FBE7C04688420020E851002052
:103150001D00002010B5024812F0A3F8002010BD99
:10316000E851002010B5002A05D00023CC5CC454DF
:1031700001339A42FAD110BD002A04D0821801709E
:1031800001308242FBD170470023C15C9AB2013307
:103190000029FAD110007047024AD3780133DBB21C
:1031A000D37070473860002070470000002307B5D7
:1031B0000A4A012013700A4A9370FFF747FF01A9DA
:1031C000084800F08BFE002806D10221019B05482B
:1031D0001943019100F086FE0EBDC04690420020CA
:1031E0003860002070100000002010B50A4CA37851
:1031F000834207D16378834205D00020637801338E
:10320000DBB2637010BD2378002BF6D000F030FDE8
:103210000028F2D0F6E7C04638600020044A537810
:10322000002B03D05378013BDBB253700020704772
:103230003860002010B5094B5A78002A03D05A781C
:10324000013AD2B25A7000205A78824204D11B78D7
:10325000834201D000F0DEFC10BDC0463860002083
:1032600010B5064C282200212000FFF785FF0448F6
:10327000FFF7DAFE034B0020E36110BD3860002049
:1032800099310000A9310000F0B58DB0019312AB67
:10329000049204CB070002927F221B880A4003930A
:1032A00014AB1B880D00059308AB5A7008221870E8
:1032B0005A80029A002A45D003995A8852180599D3
:1032C000521892B25A80FFF78FFF041E37D106AB17
:1032D0000A90D88009909E1D099B2D021F430997D3
:1032E000099B49481D43099508AD6B88099A1B0441
:1032F00013430993099900F0F5FD041E38D1022704
:103300000990099B41483B430993099900F0EAFD64
:10331000041E2DD10A90308006AB9C1D22883C4BA8
:103320009A4205D809A9394800F0D8FD00280CD0E8
:103330000A9B002B26D10324FFF77CFF6442200068
:103340000DB0F0BD5A880199BAE7F4232288FF3303
:103350009A4203D901202388FFF719FE099E3E40B7
:1033600009D10AA92B4800F0B9FD041EE0D00A9645
:10337000FFF754FFE3E706AB9A1DDB8801339BB2EE
:103380001380C9E70A9B08220B936B8829009BB224
:103390006B800B9800F0C8FD041EE9D10B9B08332D
:1033A0000B93049B002B0AD00B98019A190000F094
:1033B000BBFD041EDCD10B9B019AD3180B93029B1F
:1033C000002B10D00199059B0B9A5B1A9B180B934D
:1033D0000B98039A029900F0A7FD041EC8D10B9B1D
:1033E000039AD3180B930A9B0B489B000993022363
:1033F000099A13430993099900F074FD041EB7D18B
:10340000FFF718FF04009AE78C1000007810000006
:10341000E7030000000415006C100000F0B5544BE9
:1034200087B01B78002B32D000230193019807B09E
:10343000F0BD63889F4209D06388FF1A042F05DD21
:103440000120FFF703FE0626764261E02378012B78
:1034500060D1EB68002B08D0EB6860786188059A32
:103460000839C0B2083289B29847414B1B78002B0B
:1034700006D1AB78002B03D0FFF798FE061E47D18C
:103480003B4B1B78002BD1D1019B002B07D1394D31
:10349000EB78002BC8D0EB78013BDBB2EB7003A9D3
:1034A000354800F01BFD01900028E9D10122039B63
:1034B0001342E5D00124FFF7C9FD039B2E48A34327
:1034C0000393039900F00EFD01900028D8D1AC7051
:1034D000039FBF043F0D46D0059005A9274800F083
:1034E000FDFC06002000002E10D1059B04AC180046
:1034F000042221006B60AF6000F0F8FC019063884B
:1035000006009BB26380002893D00120FFF79EFD48
:103510000196B5E72378022B04D12B69002BA4D0A8
:103520002B699AE72378042B04D16B69002B9CD07C
:103530006B6992E72378062B04D12B6A002B94D079
:103540002B6A8AE72378072B04D1AB69002B8CD038
:10355000AB6982E72378052B00D074E76B6A002BF8
:1035600083D06B6A79E702235B42019388E7C04608
:10357000904200203860002070100000841000008D
:10358000F8B51D00002803D0002901D0002A04D17D
:10359000002D1BD0FFF70AFE17E00E4CA3689A42DD
:1035A00014D86368834211D86368A7681618DB19BA
:1035B0009E420BD800F09AFC002806D16368A268EE
:1035C0009B189E42E6D0002DE4D1F8BD0C2040426D
:1035D000FBE7C04638600020013800B5062815D842
:1035E0000C4B14F073FE07040B09110D0F00196149
:1035F000002000BDD960FBE75961F9E7D961F7E721
:103600001962F5E79961F3E75962F1E70C2040424E
:10361000EFE7C046386000207FB500230521059004
:1036200002930193009305AA04330800FFF72CFED0
:1036300007B000BD70B504009AB015002C2802D167
:103640000023042203E01B280ED10023082201A935
:103650002800FFF795FF002804D1524B01A91B68F1
:10366000002B38D11AB070BD062802D101233022B8
:10367000EDE70E28F6D0322815D14B4A4B4B116896
:103680001422994200D8043A002301A92800FFF728
:1036900077FF0028E6D1434B1B68002BE2D001A93D
:1036A00032309847DEE72F2807D16422002101A895
:1036B000FFF762FD00236422C9E734280DD101A978
:1036C000002304222800FFF75BFF011ECAD1354BFF
:1036D0001B68002BC6D02000E3E7112814D100237B
:1036E000334A01AC1370210004222800FFF748FF81
:1036F0000028B7D12F4B22781A702A4B1B68002B59
:10370000B0D021001130CCE713280ED100232C2299
:1037100001A92800FFF734FF0028A3D1214B1B6823
:10372000002B9FD001A91330BBE7042810D1002340
:10373000042201A92800FFF723FF002800D091E709
:10374000184B1B68002B00D18CE701A90430A8E7B7
:10375000652800D174E7092801D10123ABE72A28A5
:1037600001D101236DE7202800D07BE701AE0023C3
:10377000082231002800FFF703FF002800D071E77E
:103780002800B288083001230199FFF7F9FE0028CC
:1037900000D067E7034B1B68002B00D162E73100C4
:1037A00099E7C04694420020A04200204F13000039
:1037B000994200209842002010B5041E3BD0FFF72C
:1037C000E3FC002837D02000FFF7DEFC202832D8A9
:1037D000A31CDB7F013B0D2B2DD8230041331B782D
:1037E000002B09D1230042331B78002B04D1230086
:1037F00043331B78002B1ED023003F331B78012B53
:1038000001D1002010BD032B18D1E31CDB7F013B4D
:10381000032B10D81022231DDB7F93430A2B0AD1E0
:1038200024342000FFF7B0FC002804D02000FFF76C
:10383000ABFC1A28E5D90C204042E3E7022BFAD171
:103840000434E37F083B382BDBD9F4E770B58CB048
:103850006B46012607331E70002826D0002501681C
:10386000134A18001160134A157000F033FC04006D
:10387000A84213D1FFF7F4FC0400A84211D10E496D
:103880003000FFF7A9FE02A800F0C4FB030004000B
:103890000C3303D102A800F065FB040020000CB03B
:1038A00070BD280000F04FFCF8E70C246442F5E7F7
:1038B00094420020994200203536000010B5FFF7F1
:1038C000ADFD10BD1FB50022292102920192009288
:1038D00013000120FFF7D8FC05B000BDF0B5A5B07E
:1038E0001C002AAB1B88069005932BAB1B780F009E
:1038F00016000793012A1DD0002C03D10C20404252
:1039000025B0F0BD022A15D12000FFF73DFC40286C
:1039100010D12100220040311378180030383628A9
:10392000ECD80A380628E9D9473B192BE6D90132E9
:103930008A42F1D17B1E1F2BE0D8059B013B0D2B4A
:1039400002D9059BFF2BD9D15A2004AB09AD3A000F
:103950000699C018EF19FFF705FC3B000027463316
:103960001F701A2304AA9B186A46928A04A9DA8750
:10397000079B5A1E93417B225218137055235B18E4
:103980001E70032E1ED123782B70032BB6D86278BD
:10399000102311006A7099430A29AFD1162004AB95
:1039A000C018A11CFFF7DEFB6378EB189F700023A3
:1039B0002A0002930193009328216C330120FFF722
:1039C00063FC9DE7022E0DD12000FFF7DDFB431EB7
:1039D0009BB2421C3F2B00D990E721002800FFF743
:1039E000C1FBE4E7042E01D13E22F6E7012EDED032
:1039F00084E737B5002506AC248801950094FFF7CD
:103A00006DFF3EBD1FB500222B2102920192009254
:103A100013000120FFF738FC05B000BD10B504000D
:103A2000FFF7E2FB002806D1200000F00DFA002885
:103A300001D1FFF7FFFB10BDF0B50500B9B00C00D8
:103A40001600002836D0FFF7B7FE071E32D105A8B2
:103A500088222900FFF786FB2000FFF795FB00284E
:103A600028D0002C26D027AD402221002800FFF7C7
:103A700079FB37AB1E70114B114A1F70114B19683F
:103A8000CC2391420BD816226A44D37F2100013BFC
:103A9000D37717A84022FFF765FB8A232E700022F8
:103AA0008821029201920092012005AAFFF7ECFB07
:103AB00039B0F0BD0C204042FAE7C04699420020E0
:103AC0004F130000A04200201FB5002205210292E2
:103AD0000192009213000120FFF7D6FB05B000BD54
:103AE0001FB500221A2102920192009213000120B8
:103AF000FFF7CAFB05B000BD37B58024A5256400DB
:103B000004436D012100280000F0ECF9002301A915
:103B10002800019300F0E2F90028F3D1019BA342B1
:103B2000F0D13EBD002307B5104801A9019300F074
:103B3000D5F9002819D18021019B490019430B4870
:103B4000019100F0CFF900280FD1D02001A9400148
:103B500000F0C4F9002808D18021D020019B49023F
:103B600019434001019100F0BDF90EBD0814000099
:103B700037B51F4C2568002D20D180202100400141
:103B800000F0ACF9002803D00023236028003EBDDC
:103B900001A9184800F0A2F90028F5D12368164AB7
:103BA00093420DD1019B012B01D0144B236023685C
:103BB000134A1A40A023DB02134323602568E5E77C
:103BC000104A934208D1019B032BF0D0042B01D162
:103BD0000D4BEBE70D4BE9E70D4A9342E7D1EC20A3
:103BE0002100800300F07AF90028CDD1DFE7C0463C
:103BF0009C420020F4130000A0021000A10210005B
:103C0000FFFFF0FFB0021000B1021000B20210007E
:103C1000F000100013B5012401A9102000F05EF996
:103C2000002812D1019B2342F6D101A9013000F0F6
:103C300055F9002809D102230199194206D101A999
:103C40000B2000F04BF9002808D016BD9943012045
:103C5000019100F047F90028F1D0F6E7012301991E
:103C60001942F2D099430B20019100F03BF9ECE7A7
:103C7000002373B50B2069460093019300F02EF9E1
:103C8000041E09D10121009B0B4207D06946012087
:103C900000F024F9041E08D0200076BD19430B2043
:103CA00000F020F9041EF1D0F6E70221009B0B4240
:103CB00013D00525042601A90F2000F00FF9041EDA
:103CC000EAD1019B33420FD10220013DFFF75FF99A
:103CD000002DF0D104246442DEE71943012000F0F6
:103CE00001F9041EE5D0D7E700F0F0F8D4E70000B2
:103CF00070B50400264800F0EDF8002803DB012031
:103D0000FFF745F9F6E7234800F0E4F8C3070CD4C1
:103D1000214D0120FFF73BF9013D204800F0DAF882
:103D2000002D31D01E4B9842F3D1022C0AD11D49EF
:103D30001D4800F0D7F8802149031C4800F0D2F854
:103D400000240EE0032C05D11649174800F0CAF8EC
:103D50000021F2E716491548042CEFD100F0C2F813
:103D60007C34FFF705FF134B0005000D984209D97D
:103D700002202043FFF7C0FE0F49084800F0B2F8C8
:103D8000002070BD2000F5E705204042F9E7C0465D
:103D900014100000BC070200D10700000C000C004A
:103DA0009ED0AD107DD51C3CAC0702008C100000ED
:103DB000521352139F030000612F52EF37B5134B7C
:103DC000134C023800930194012803D8114B00933F
:103DD000114B0193FA250020ED00019B834209D18C
:103DE000019B0025A34203D12900084800F07AF87E
:103DF00028003EBD0220FFF7CAF8013D009800F000
:103E000069F8002DE9D105256D42F1E78C1000001D
:103E100036265302AC070200C3C15DD707B5A02008
:103E2000002301A94001019300F058F8002807D1B0
:103E3000A020019B034940011940019100F052F874
:103E40000EBDC046FFFBFFFF30B587B00822002142
:103E5000050004A816F0B5FD01A9164800F03EF8CB
:103E6000041E24D1019B002B1BD0C02080021843CC
:103E7000082204A900F03AF8041E18D1049B01930B
:103E8000019B02A998B2C0239B020190062218430D
:103E900000F02CF80622040002A92800FFF762F9BE
:103EA00005E001A9044800F019F8041EE8D020003C
:103EB00007B030BD08000C009C14000010B5FFF7DF
:103EC000E5F810BD10B5FFF745F910BD10B500F0CD
:103ED000DFFA10BD10B500F0EFFA10BD10B500F01C
:103EE000F1FA10BD10B500F0F6FA10BDF7B50700F5
:103EF000150006000B4B01911C88083CA4B2019BE5
:103F0000D91B8919AC4204D3AAB2300000F02CFBB3
:103F1000FEBD2200300000F027FB0028F8D12D1B49
:103F20003619ECE720000020F7B507001500060061
:103F30000B4B01911C88083CA4B2019BD91B891929
:103F4000AC4204D3AAB2300000F056FBFEBD220002
:103F5000300000F051FB0028F8D12D1B3619ECE79A
:103F600020000020002373B5040001A92348019319
:103F7000FFF7B4FF224B019A05009A4204D101A930
:103F80002048FFF7ABFF05000F26019A110C8BB2FA
:103F9000180A1B0933402372314093B26172190A27
:103FA0001B093340324021716371A271E071FFF748
:103FB000DFFD00232060FF2022792384A3791202F1
:103FC0003340134362791201024013430E4A1360D7
:103FD000E179627A090232400A43217A09010140FB
:103FE0000A480A43824201D90D256D42084A93428C
:103FF00001D80D256D42280076BDC046AC070200F1
:10400000C3C15DD748100000A04200205213000039
:104010005113000030B5002585B0040008222900A6
:1040200002A8019516F0CDFCAC4202D1002005B0EB
:1040300030BD290020002822FFF79EF801A9214861
:10404000FFF74CFF0028F2D10198002802D10C2084
:104050004042ECE7C025AD022843082202A9FFF741
:1040600045FF0028E3D1039880B201900028EED0EC
:10407000284328222100FFF739FF0028D7D10F213C
:10408000FF252279A379607912020B4000011343C6
:1040900028400D4A03431360627AE0790A40217A8E
:1040A00000020901024329400A43002BCFD0002A15
:1040B000CDD006498A4202D8054A9342B6D80D208F
:1040C000C6E7C04608000C00A042002052130000C2
:1040D0005113000070B50125002804D005786B1E2F
:1040E000032B00D901250020FFF7E8FE041E1ED196
:1040F000FF24FFF73DFDE823240120409B00984268
:1041000017D100F0F1F92800FFF7F2FD041E0CD1E1
:104110002800FFF753FE041E07D1023D012D06D9EA
:10412000FFF700FD002802D00400FFF7CBFE2000BF
:1041300070BDFFF71DFDAC2320409B009842E0D0EE
:1041400010246442F1E710B5FFF768FE041E09D1A0
:1041500000F074FE041E05D1FFF7B4FE041E01D169
:1041600000F0A4F9200010BD1FB5002201AB0190A2
:104170001981032019000292FEF7A0FF05B000BDCF
:104180001FB5002201AB0290198103201900019292
:10419000FEF794FF05B000BD73B56B460600DD1D4C
:1041A000CF2822D003003B33DBB2012B1DD90B24D7
:1041B00001212800FFF7E4FF00281CD12B78B3422F
:1041C00003D0013CE4B2002CF2D10B2401212800E1
:1041D000FFF7D6FF00280ED12B78002B03D0013C2F
:1041E000E4B2002CF2D1012006E001212800FFF703
:1041F000C7FF0028DBD0002076BD0000F0B50C0022
:10420000002785B0009001928023261C9B019C42D0
:1042100001D91B4B1E880A25B6B202AB0121D81C5E
:10422000FFF7AEFF002808D102ABDB781B090F2B8C
:1042300010D0013D2DB26B1CEFD100201DE0114BC1
:104240001B78002B12D1022103A8FFF799FF002849
:104250000CD0F2E7002DF0D0009B3100D819FFF709
:104260008FFF0028E9D1019B002BE8D0A41BF71990
:10427000A4B23FB2002CC7D1012005B0F0BDC046AA
:10428000F0E10100A4420020F0B585B00AAC257829
:1042900001AC2070C3380C2800D96BE014F016F87C
:1042A000482936363C3C5A076A6A6A6A3A000B0C5F
:1042B00063700B0AA370E17005212F4B481E1B7819
:1042C000002B55D10A002D4D7F3366185742F75DFC
:1042D0005B007B40013AEB5C012AF7D15B00235481
:1042E00089B22000FFF740FF4342584140B205B079
:1042F000F0BD0B0ADBB2002D04D163700023A17066
:10430000E370D9E7802252421343F6E7002363703B
:10431000A370F5E7FF23FAE70A0C62700A0AA2709D
:10432000002222711A0AE1706271A3710821C4E7A8
:104330000B0ADBB2002D09D16370130EE370130C6E
:104340002371130AA1706371A271EFE780204042CC
:104350000343F1E70B0C63700B0AA370130E237178
:10436000130C6371130AE170A371E2710921A4E7D0
:10437000C1B2B5E70020BAE7A4420020F6E101008F
:10438000F0B585B006000391302830D8194B1F785E
:1043900030220023B2425B410A24FFB20293029B07
:1043A000039A0093310004233800FFF76DFF0500E6
:1043B000012805D13800FFF7EFFE0500012813D0D2
:1043C0000120FEF7E4FD0021CF2000910B000A0040
:1043D000FFF75AFF013CCF20FFF7DEFEE4B20120D9
:1043E000FEF7D5FD002CDAD1280005B0F0BD024B58
:1043F000CDE7C046F2E10100F3E10100F0B50600AF
:1044000087B00F00FF2827D81F4B1B78FF22DBB295
:1044100002930023B2425B410A250393039B0022CF
:104420000093310004230298FFF72EFF04000128B7
:1044300014D10298FFF7B0FE040001280ED1039AB0
:10444000042105A8FFF7DAFE0400012806D1059B28
:104450003B60200007B0F0BD0C4BD6E70120FEF713
:1044600096FD0021CF2000910B000A00FFF70CFF02
:10447000013DCF20FFF790FEEDB20120FEF787FD52
:10448000002DCBD1E5E7C046F4E10100F5E10100E4
:1044900013B50024CF202300220021000094FFF751
:1044A000F3FECF20FFF778FE200016BD0020014B61
:1044B00018707047A442002007B501A9FFF79EFFBE
:1044C00001980EBD10B5FFF799FF0023012800D019
:1044D000063B180010BD10B5FFF752FF002301285E
:1044E00000D0063B180010BD002313B51C4C01A9D9
:1044F0001C4801932370FFF781FF002814D0237814
:10450000002B1BD0802069464001FFF777FF002871
:1045100022D01448FFF7D0FF702350219843014365
:104520001048FFF7D8FF07E0012301A90D482370C9
:10453000FFF764FF0028E2D1002016BD7C23502144
:10454000019A08489A4311430191FFF719FF002887
:10455000F2D001232370D5E706204042EDE7C046A4
:10456000A442002024E80000F0B514000A27002629
:1045700087B003900291012C01D12600013400255F
:10458000230000952A000399C820FFF77DFE01282B
:1045900016D00120FEF7FBFC0021CF2000910B007C
:1045A0000A00FFF771FE013FCF20FFF7F5FDFFB2D4
:1045B0000120FEF7ECFC002FDDD10620404212E086
:1045C000C820FFF7E9FD0128E3D1002E0DD02A0015
:1045D000210005A8FFF712FE02AB1B7B029A1370A5
:1045E0000128D6D1002007B0F0BD3200210002988A
:1045F000FFF704FEF4E700000A23F0B5160089B0C7
:10460000049005910293012E00D10136002733005A
:1046100000973A000499C720FFF736FE012849D1D8
:10462000C630FFF7B9FD012844D1340007AB1F8025
:10463000039080239B019C4256D8250003230B2026
:1046400004AA801810225242134303990370FFF703
:104650008BFD00282ED1059B2900D819FFF784FD7A
:10466000002827D1244B1B78002B1DD0641BEF1989
:10467000A4B23FB2002CDCD11F4B07A81D786B1EE3
:104680009D410235A9B2FFF77BFD002812D107AB8F
:104690005D196B1E1B78002B0CD1023D2B78C32BB0
:1046A00008D1200009B0F0BD022107A8FFF75CFD8A
:1046B0000028DBD00120FEF76AFC0021CF200B0090
:1046C00000910A00FFF7E0FDCF20FFF765FD012014
:1046D000FEF75DFC029B013BDBB20293002B00D096
:1046E00091E706204042DDE78025039BAD01002FC6
:1046F000A5D00223A3E7C046A4420020F0B59BB09A
:1047000000911400412801D0542816D109AD00238E
:10471000042229002000FEF733FF00280BD16B781C
:1047200005AA1370964B1968002904D000200121B6
:104730001B68285698471BB0F0BD422814D109AD1C
:104740000023042229002000FEF71AFF0028F2D1DE
:104750006B7805AA13708A4B19680029EBD00020EA
:104760001B6828560221E5E743283DD105AD00230B
:104770000C2229002000FEF703FF0028DBD10920CE
:10478000285600281FDB0823EB567E4A1B01D3184E
:10479000DB7A04011119DBB2CB7201238B726B89B6
:1047A000083B9BB20B81784B1988013189B2198083
:1047B0001988002903D11988013189B219801B8811
:1047C00012199BB2D380022309AA107093806B88C0
:1047D000D3806B6893606A4B19680029ABD00820BE
:1047E0001B6828560421A5E7442801D04B2821D175
:1047F00009AD0023042229002000FEF7C1FE002895
:1048000000D098E700200123285605AA1070EB5627
:104810005370002B06D16B885A49083B04019BB2A8
:1048200009190B81564B1968002900D183E71B68D1
:1048300005217FE74A2812D10023442209A920003C
:10484000FEF79EFE002800D075E7504B1A68002A3C
:1048500000D170E71B68199909A898476BE74628AB
:1048600003D0482839D04D2847D1062605AD00236E
:10487000102229002000FEF783FE002800D05AE70E
:104880000C27EB89EF573F4902933B01CB1801936B
:1048900018730822AB5E6A890392698809AA51815C
:1048A0006968029DD1600199C9888D421BD1002B96
:1048B00015DD00998B4212DA01259380039B344960
:1048C0001C190D701460D0802D4B1968002900D17F
:1048D00031E71B68310038002CE70926C6E79380D2
:1048E00000230993F0E7009B102B00D823E7012356
:1048F00002000100FEF744FE1DE7452803D04728CB
:1049000021D04C2821D1072609AD002308222900F7
:104910002000FEF735FE002800D00CE700206B8851
:10492000285605AAA9881380164B04011B19DB8899
:10493000994200D0FFE6124B1968002900D1FAE62F
:104940001B683100F6E60826DEE7522800D0F2E6C2
:1049500009AD0123142229002000FEF711FE0028D2
:1049600000D0E8E60B4B6A681A601A68002A00D18A
:10497000E1E61B682A7CA96828689847DBE6C04600
:104980001461002064600020A64200201C61002009
:10499000904200201861002070B5094D2C78E4B2D7
:1049A000002C0CD1B02221000648FEF7E5FB064999
:1049B0000220FEF711FE01232B70044B1C8070BDFA
:1049C000A542002064600020FD460000A6420020B1
:1049D000024B1860024B19607047C04614610020FA
:1049E0001C610020F0B5170089B0022804D0012511
:1049F0006D42280009B0F0BD012943D107252E4E94
:104A0000337834783078DBB201300721059313F026
:104A1000E1FDE4B2294BC9B2240131701C19A37A1B
:104A2000002B2AD16B4614255D57002DE1DB1022A7
:104A300000212000FEF7A0FB0123A372204B1A885F
:104A4000013292B21A801A88002A03D11A880132E0
:104A500092B21A801B889BB2E380FB07C9D5212341
:104A6000E372002307AA157050210293019300936B
:104A700002200433FEF708FCBBE7013DEDB2002D38
:104A8000BED1B4E70229B2D1042303260D490E4852
:104A90000D780C780A7824010132324024180A700B
:104AA000A27AEDB2002A02D107356DB2BDE7013B13
:104AB000DBB2002BECD19AE7A84200206460002012
:104AC000A6420020A9420020D4600020F0B51400C6
:104AD00089B000282DDB00292BD0174B0701DA19EC
:104AE000937ADBB2012B24D1002C22D0D47A442635
:104AF000A446654605AC1D4202D0D37A07366372E0
:104B0000207208222000FEF72DFB0B4B2200DD193E
:104B1000EB8831006381002302200293019300930C
:104B20000C33FEF7B1FB002801D00920404209B048
:104B3000F0BD0620FAE7C0466460002070B588B07A
:104B4000002833DB002931D0AF23DB009A422DD877
:104B5000174C0601A3199D7A012D27D1DB8804ADDE
:104B6000AB8128706A805023062800DD0C3BA01919
:104B7000C67A4524F60708D50E4C038926680E48E8
:104B80009BB24C24864200D85523802004430293D4
:104B90000192009110232A0021007E38FEF774FB59
:104BA000002801D00E20404208B070BD0620FAE770
:104BB00064600020A04200203F130000F0B5070011
:104BC00087B010001A00002F29DB164C3B01E618B5
:104BD000B57AEDB2012D22D11951B0800020317B80
:104BE00081421AD13573F07A4621284200D007312C
:104BF000002A00D1013AE418E388049204AAD38081
:104C00000023177102200293019300930833FEF7EB
:104C10003BFB002801D00E20404207B0F0BD06202B
:104C2000FAE7C0466460002070B586B0002825DB36
:104C3000144C050161198E7AF6B2012E1ED1CB8873
:104C400005AA538000238B72CB801070C87A49214B
:104C5000304200D0053102930193009302200423D7
:104C6000FEF712FB061E01D00926764260191022BB
:104C70000021FEF781FA300006B070BD06267642AC
:104C8000F9E7C04664600020F0B589B005920028BD
:104C90002BDB174C0701E519AE7AF6B2012E24D1B1
:104CA000AA7A002A02D1002009B0F0BD6A46928A91
:104CB0003951AA802A7B002AF5D12E73002B00D10E
:104CC000013BE4190693E38806AAD3800023107100
:104CD000482102930193009302200833FEF7D4FA8F
:104CE0000028E1D00E204042DEE70620FBE7C04668
:104CF000646000201FB50400FEF746FAC3B2402BE3
:104D00000BD8002201330292019200924A21220024
:104D10000220FEF7B9FA04B010BD06204042FAE7BF
:104D2000F0B599B01EAC24880591A446002800DA9D
:104D30007FE0002B00D17CE03F4E05017419A77A7B
:104D4000F9B2012900D074E0059F022F5BD106283B
:104D500000DD6EE0E77A0F4200D16AE0012A0DD152
:104D60001868E37A002804D005991943E1720020FD
:104D700002E0059A9343E37219B0F0BD032A0AD109
:104D80001868E27A1023002802D01343E372EEE79A
:104D90009A43E272F0E7042A0CD11B687519002BC4
:104DA00004D04023EA7A1343EB72E0E74022EB7A27
:104DB0009343F9E7022A3CD162463F2A39D8751954
:104DC000EA8806AC6280624600260225190020703F
:104DD000079208A840226570FEF7C4F9482302969E
:104DE00001960096220051212800FEF74DFAC31CBF
:104DF000BDD102960196009648232200D1212800B9
:104E0000FEF742FAB3E71B6806A90693E3884A71E6
:104E1000CB80002308710A000293019300934F2175
:104E200008330220FEF730FA0028A5D009204042BE
:104E3000A2E70620FBE7C0466460002073B50500CA
:104E4000FEF796FE294B0005000D0024984232D94A
:104E500001A92748FFF742F8041E2CD1019B254EDB
:104E600025493340194322480191FFF73BF82100BF
:104E70002248002D21D0FFF735F8AB212048FFF75D
:104E800031F801211F48FFF72DF821001E48FFF7D8
:104E900029F881211D48FFF725F81D48FFF71AF86A
:104EA0000128FAD18021019B49021E40314310485C
:104EB0000191FFF717F8200076BDFFF713F8B9212D
:104EC0000F48FFF70FF801210E48FFF70BF82100FC
:104ED0000D48FFF707F881210C48FFF703F80C484D
:104EE000FEF7F8FF0128FAD1DCE7C0469F03000077
:104EF00010140000FF8F88F8001011010802010053
:104F00000C020100140201001C0201000402010055
:104F100018020100704710B5040012F04BFF20008A
:104F200010BD0000F8B504000C4B0500083308C4A0
:104F30009B23FF279B00C61800212000217067706B
:104F40002181E1612162616228301022383415F03C
:104F500038FDB442F0D12800F8BDC046F8E20100A7
:104F600010B50400080011001A00FFF73BFD0028EF
:104F700006DB382301224343E3181A71FE325A71CB
:104F800010BD13B504AC080011001A0008CC248829
:104F90000094FFF7C5FE16BDF7B50E00170005001B
:104FA00039001A003000FFF791FD002188421BDB19
:104FB0003824022374432C19237112F06FFE0190E0
:104FC0002379022B0AD112F069FE019BC01A0F4B04
:104FD000984203D80020FEF771FCF1E72379002105
:104FE000032B03D0012323710800FEBD3823734334
:104FF000A1817A88ED186A827B680A006B613000B3
:105000000B00FFF7DBFD0121EEE7C0461F4E00005D
:1050100070B5040000200D00FEF750FC38216943F4
:1050200064182079033843425841C0B270BD70B54E
:10503000040000200D00FEF741FC3821FD226943E9
:1050400061180B790020033B134203D10C23C85E87
:105050008B6AC01870BD382310B504005A438918F4
:10506000496912F083FB200010BD382359434018D2
:10507000408A7047F8B5070000200D001C0016009C
:10508000FEF71CFC38236B43FF183B79032B10D130
:10509000A2B2002331002800FFF750FD002809DAF2
:1050A0000E3006D1044B1878002802D1FEF706FC1A
:1050B000EEE700242000F8BD90420020F8B50E0075
:1050C000382405000020FEF7F9FBFD2374432C195A
:1050D00020790338184009D10C22A35E002B05DD8E
:1050E000A081012302000100FEF74AFA00233827BD
:1050F0002371FF3363713B007343EB18186A002878
:1051000001D015F017FC774338000021EB192C3043
:105110001962596299622818A181102215F051FC78
:105120003000FFF781FDF8BDF7B538244C43041972
:10513000256A06000F00002D06D1B820C00015F02A
:10514000EFFBA562206260623824B8217C433419E9
:105150000C23E25EC90015008A4200DD0D0000202C
:10516000ABB20193D30F9142434138225743F61912
:10517000DBB2AAB2316AA068FEF702FA030000208F
:1051800083420AD1336AB5627362A368019A5D19DA
:10519000A389A5609B1AA3810130FEBD70B50E00E6
:1051A000382405000020FEF789FBFD2274432C19EA
:1051B0002379033B134202D00120404270BD3100ED
:1051C0002800FFF734FF0028F6D0A36A002B05D093
:1051D000382070432818436A1878EFE70C22A35E42
:1051E000002BF5D031002800FFF79EFF0028EFD1FB
:1051F000E2E7F0B587B0019000200C0004921D009A
:10520000FEF75CFB38236343019AD318FD22039316
:105210001B79033B134204D000230293029807B08A
:10522000F0BD21000198FFF702FF0028F4DD854260
:1052300000DD05000023029338336343019AD3183D
:105240000593059B9B6A002D28D0002B1BD0059B46
:105250009E6AAE4200DD2E0038276743019B320074
:10526000DF19796A049815F090FB7B6AAD1B9B19D6
:105270007B62BB6A9B1BBB62049B9B190493029BD2
:105280009B190293DDE7039B0C229B5E002BDED073
:1052900021000198FFF748FF0028D8D13823634345
:1052A000019AD518AB6A002BB8D1039B0C21595E2B
:1052B0000029B3D10B000A002000062C05DCFFF703
:1052C0007DFC0020FEF7FAFAA8E7FFF7DDFCF8E71F
:1052D00070B50400501E082811D812F0F7FF05130E
:1052E000101E394310104300382251436418002B1C
:1052F00006D01B785BB2002B02D10533237170BD41
:105300000123FBE7382251436418002BF8D01B78A7
:105310005BB2002BF4D10733F0E7002BEFD0002075
:1053200018560028EBDB3822082550432018057159
:10533000002018565043201841710021595604335B
:105340004A43A418103407CB07C41B682360D6E770
:10535000382251436418002BD2D05B787F2BCFD8F2
:105360000323CBE704201A5E002A03DC2000FFF7AA
:10537000A5FEC4E73822FD254A43A2181079033858
:10538000284210D1186890600425585F9081062942
:1053900005DD1032083361CB61C21B681360200049
:1053A000FFF7C2FEABE70022012311001000FEF759
:1053B000E7F8A4E710B513000A0001000148FFF761
:1053C00087FF10BDAC42002010B5054C2000FFF750
:1053D000A9FD044A0449200012F070FF10BDC04628
:1053E000AC42002000000020154F000010B50368FB
:1053F0009C6B0123A04710BD8C2300229B00C1544D
:10540000103BC3185A609A60DA60012383757047B5
:1054100010B5036801211B6B984710BDF8B5050056
:105420000E0017000024BC4208D02B68315D1B68B9
:1054300028009847002801D00134F4E72000F8BD87
:10544000FC30406A704770478E239B00C150704704
:105450008D239B00C15070470300FC335A6A002A19
:1054600003D01B6AC018007E704701204042FBE752
:1054700070B5060018250C49006910F071FB306901
:1054800010F0AFF92B000821307D084C4343E3189E
:10549000595612F065FE0821707D45436419615626
:1054A00012F05EFE70BDC046A08601002C300200E6
:1054B00070B504000D00006910F0A8F929002069FA
:1054C00010F04EFB206910F08CF970BD10B500692A
:1054D00010F09CF910BD0000F7B50193FA23802667
:1054E000002504009B008360134B760008330F00F7
:1054F00045602900009203603200183015F061FA0F
:1055000023002000FC332530DD6132001D622900BC
:105510005D62FF3015F055FA88239B00E3185D604B
:105520009D60DD606B461B78276123756B461B7998
:10553000A57520006375FEBD08E3010070B5060087
:105540001825006910F0E7FA306910F04AF92B00CD
:105550000821307D064C4343E318595612F000FEF3
:105560000821707D45436419615612F0F9FD70BD44
:105570002C30020010B50022FFF7E0FF10BD030041
:10558000802210B5FC33DC685200944208D05A687F
:1055900081545A680132D2B25A60DA680132DA6054
:1055A00010BDF7B50400171E019302D10025280095
:1055B000FEBD03000022FC33DA611A625A62006900
:1055C000013210F055F9061EF0D02300206918337F
:1055D000009310F0E0F901000098FFF7D0FF0125DB
:1055E0002069BD4214D010F0B4F900280FD0206912
:1055F00010F01EF90221206910F024F9206910F042
:10560000CAF901000098FFF7BAFF0135E8E7060084
:10561000206910F005F9019B002B06D0002E06D062
:105620000321206910F00EF9C1E7002EBFD1013D22
:10563000BDE7002310B5827D9A420CD088229200EB
:105640008218D46880225200944204D02530FF3062
:10565000FFF795FF0123180010BD0300FC33DA6843
:10566000002A09D09A68805C9A680132D2B29A60A6
:10567000DA68013ADA60704701204042FBE7002215
:105680008C2370B59B00827504000E00C15C00691C
:1056900010F0EEF8002806D10321206910F0D2F8AE
:1056A0000225280070BD88239B00E318DD68002DCB
:1056B00011D020002530FF302569FFF7CEFFC1B2A1
:1056C000280010F017F90028EDD10321206910F00F
:1056D000B9F80325E5E7002EE3D00321206910F097
:1056E000B1F8DEE710B51830FFF7B7FF10BD70B5A1
:1056F0000400006910F024F9002815D0206910F08A
:1057000036F9002811D0206910F092F803212069A1
:1057100010F098F88E239B00E558002D35D100231A
:10572000FC34E3612362636270BD206910F029F9E3
:10573000002809D0206910F01FF9002804D0206942
:1057400010F024F90028DED0206910F01AF90028A2
:1057500021D1206910F006F90028E5D0206910F069
:1057600015F9002833D088239B00E318DB68FF215C
:10577000002B05D020002530FF30FFF76EFFC1B2AF
:10578000206910F0CFF8A075CEE7236820001B69D0
:105790009847A847C3E7206910F04AF82069032119
:1057A00010F050F8206910F0F1F80028BCD08823E0
:1057B00000229B00E3185A609A60DA600123A37507
:1057C0008D239B00E3589342AED09847ACE723006B
:1057D000FC335A6A802320695B009A4206D110F09C
:1057E0001FF80321206910F02DF89DE710F0D3F881
:1057F000010020001830FFF7C2FE206910F018F8F1
:10580000EFE7000010B50248FFF771FF10BDC0467A
:105810001845002010B50248FFF769FF10BDC046CB
:105820005447002010B510230F2205490548FFF703
:1058300053FE1223112204490448FFF74DFE10BD08
:10584000DC58002018450020EC5800205447002068
:1058500010B50400034B0833036000F005FB200083
:1058600010BDC04658E3010010B50400FFF7F0FF7B
:10587000200012F09FFA200010BD243070B51D00EA
:10588000040000F0D1FF2A002000049B059900F0DD
:10589000D7FF012070BD1D30FF3070B51D00040022
:1058A00000F0CAFE2A002000049B059900F0D0FEFB
:1058B000012070BD102210B50400110000F0BCFAE8
:1058C000024B20000833236010BDC04658E301009E
:1058D00010B5054C2000FFF7EDFF044A04492000F5
:1058E00012F0ECFC10BDC0469049002000000020E2
:1058F00051580000704710B5040012F05BFA200008
:1059000010BD436810B5181E00D0984710BD416007
:1059100070470000054B0648083310B503600023AC
:10592000044A0549436012F0C9FC10BD70E3010050
:10593000A44B002000000020F558000013B56B4672
:105940000268D9710733546819000122A04716BDB7
:1059500013B56B46DC1D036801225B6A2100984782
:10596000012801D1207816BD01204042FBE710B587
:10597000006903681B6B984710BD036870B5DB6A4C
:1059800004000D0016009847002809D02368320053
:105990005B6A290020009847431C03D1002001E0E6
:1059A0000120404270BD036870B5DB6A04000D0041
:1059B00016009847002807D0236832005B6829004A
:1059C00020009847002801D10120404270BD00000E
:1059D0000B4B10B508330360030054331B780400ED
:1059E000002B06D0806B002803D014F0A3FF002307
:1059F000A363606B002801D014F09CFF200010BD51
:105A000004FE010010B50400FFF7E2FF200012F0D1
:105A1000D1F9200010BD0000F8B505000F001600F8
:105A20000024B4420AD20B4B321B3900E8180DF0A7
:105A300080F900280BDB3F182418F2E7B44206D1A6
:105A4000044BE8180DF097F9C043C017044020003C
:105A5000F8BDC046D43B000010B50400044BC0188C
:105A60000DF089F920690368DB68984710BDC046CE
:105A7000D43B0000044B10B5C0180DF003F9C3432C
:105A8000DB17184010BDC046D43B000010B5024BD8
:105A9000C0180DF0D3F810BDD43B000013B56B4611
:105AA000DC1D064B0122C01821000DF00FF9012862
:105AB00001D1207816BD01204042FBE7D43B000015
:105AC00010B5040000690368DB6A9847002807D016
:105AD000200058300BF016FD0138431E9841C0B22B
:105AE00010BD000010B5040000690368DB6A984728
:105AF00000280DD0200058300BF004FDC30703D45C
:105B0000044BE0180DF042F9206903689B6A98473E
:105B100010BDC046D43B000083610F4B30B5FA2561
:105B200003620E4B002443620300AD0085600C4D00
:105B30005433083505604460016142610477446371
:105B400004658462C46204638463C463046444645B
:105B50008464C4641C7030BD694601002D46010098
:105B600004FE010010B504001023024AFFF7D4FF21
:105B7000200010BD94EA0100F0B5050004005A4B66
:105B800091B0583542690791C118836928000BF01C
:105B900087F8564A564BA118564AE3180092280037
:105BA000554A0BF08DFA554E08AF30000EF0BCFE92
:105BB000002809D10026FF21002011F0E8FCB8558B
:105BC0000136202EF7D10BE030000EF098FF0028B0
:105BD000F0D02022390030000EF0A5FF0028E9D0D7
:105BE0002022390028000BF00DFB236A444A454966
:105BF000A350454A6118A2580B60444BE3181A6041
:105C0000E36B002B2ED0666B002E5CD03300FC3390
:105C1000DB6B002B26D191239B00F75C022F14D164
:105C2000236D059304F09CFA069006F009FD069B8F
:105C3000059A0293302300933300039001972100CB
:105C4000280038310AF03AFF0CE0012F0AD1276D05
:105C500009F092F82100009033003A003831280012
:105C60000AF0A6FF0022079928000AF0C9FF284879
:105C7000FFF747FE274B2849E618070012F03AFBCA
:105C8000264B2549C0187063380012F0B9FB244B2D
:105C9000B163244AE6182369300001930092290079
:105CA000214A0CF0C3FF30000DF065F808260124EE
:105CB00028000BF027FC0300334012D12042F7D01C
:105CC000180011B0F0BD266D04F04AFA636A320084
:105CD0000393022301932E33009323000290283371
:105CE000ADE70120EDE7C046A80D000090190000C7
:105CF0007F39000055020000EF1F00009050002087
:105D0000640D0000841900005C0D0000881900007B
:105D1000A44B0020A40E000080510100A8FA0A0044
:105D2000D43B0000A75900007B590000F0B503697F
:105D300089B09C461B680192DE690B4B0C1D0293D7
:105D400003AB050085CC85C3246860461C600B7DD1
:105D500002A90B75019AB047002803D00021280042
:105D6000FFF70AFF09B0F0BD8434020070B50500EA
:105D700000690C0003681B6A9847002808D02B7F35
:105D800028005A4253415B421C402100FFF7F4FEB9
:105D900070BD000010B50400034B0833036000F031
:105DA00063F8200010BDC04648FE010010B5040095
:105DB000FFF7F0FF200011F0FDFF200010BD2430A0
:105DC00070B51D00040002F039FB2A002000049B7E
:105DD000059902F03FFB012070BDAD30FF3070B57A
:105DE0001D00040002F004FB2A002000049B05991A
:105DF00002F0CAFA012070BD082210B5040011009B
:105E000000F01AF8024B20000833236010BDC04692
:105E100048FE010010B5054C2000FFF7EDFF044AD5
