:020000040000FA
:10000000402B0020D5160000BD160000D1160000C0
:1000100000000000000000000000000000000000E0
:10002000000000000000000000000000BD160000FD
:100030000000000000000000BD1600005510000088
:10004000BD160000BD160000BD160000BD16000064
:10005000BD160000BD160000BD160000BD16000054
:10006000BD160000BD160000BD160000BD16000044
:10007000BD160000BD160000BD160000BD16000034
:10008000BD160000BD160000BD160000BD16000024
:10009000BD1600000000000000000000BD160000BA
:1000A000BD160000BD160000BD160000BD16000004
:1000B00000000000F8B5394D00AFAB68002B00D050
:1000C000FEE701F053FC364B1E68364BF218F8235E
:1000D0009B029A4214D8344B344A1968344C354B3D
:1000E000914238D11978344AC90702D42168914223
:1000F00031D0324B22601B68314A2D33FF331360FD
:10010000012400F041FF2F4B1C70BFF35F8F62B6DC
:1001100000F01EFC0A2001F031FC00232A4E33704F
:1001200000F0CCF9294D00280FD02B78DBB2002B42
:100130000AD1A020224A0001136001F01FFC002315
:10014000F356002B00D134702C702B78002BE7D0A5
:1001500001F068F9FCE71B78DB07DB0F0DD000230B
:10016000802223601A4B12055A6180239B011A6872
:1001700082F30888AB603047C2E72168154A914294
:1001800001D12360BCE721680B4B9942E7D0FA20EC
:100190002260400001F020FBE1E7C04600ED00E0F6
:1001A0000420000000E0FFFFB42000007CB0EE87D8
:1001B000FC7F002038040040EF6926F0340B00205B
:1001C000380B0020A4000020D8000020DC00002014
:1001D00000440041EF6916F0202370B5364A0F2025
:1001E000D1690B43D361012234490B7813430B705F
:1001F000334B19788143197006211C7821431970FB
:1002000030490C7822430A701A7802401A70602232
:1002100019780A431A702C4B2C4A5A805A7852B2D9
:10022000002AFBDB01222A4B19780A431A709A78BC
:10023000D207FCD41F2027490A68520B0240824291
:1002400000D105221C8D244D024092012C402243F6
:100250001A850A68920C02401F2A00D1023A1F2414
:10026000188D2240A043024307201A850A68D20D48
:100270000240824200D10322198D02401748120326
:1002800001400A437F211A851A7815480A401A70DE
:10029000042219780A430C211A7058621A898A4379
:1002A0001A811A890B398A431A818022002152004F
:1002B00001F079FB70BDC046000400405844004185
:1002C0003C44004159440041000C004006400000FD
:1002D00000500041246080003FF8FFFFFF8FFFFFC8
:1002E000AC070020F7B51C00314B06005B6A0F001D
:1002F00015000193002C05D1443454432D4BE418D0
:1003000001F0A4FA63782278934210D2D51ABD4244
:1003100000D93D00002E08D0211DC9182A00300048
:1003200001F038FB63785B1963702800FEBD019B08
:10033000A1786A01D318002911D1211D19605968CB
:100340001D48890B890359605968014059601B4950
:10035000551840212879014329710121A1701449C0
:1003600000255118019116495218127AD207DCD58E
:100370005D68A278EDB22570022A04D11968201DAB
:100380002A0001F007FBBD4200D93D00002E0CD031
:100390006570211D2A00300001F0FCFA0122019B4A
:1003A000FF331A720023A370BFE76670F6E7C046FA
:1003B00000500041AC080020FF3F00F00051004118
:1003C000FF50004110B50023FFF78CFF10BDF8B5BA
:1003D00005000C0016001F00002C00D1F8BD210004
:1003E00028003B003200FFF77DFF241A2D18F3E7A9
:1003F000F8B50E001F4955014C6A2C19002B1CD072
:1004000063695B005B08636120616369B2049B0BF5
:10041000920C9B03134363616369174A8021134065
:100420006361164BEA18022313729171134AAD18D7
:100430002A7A1A42FCD03000F8BD012163695B00C2
:100440005B0F03339940B14208D8043A531E9A41D6
:100450006369D2075B005B081343D4E74427574323
:10046000074A0437BF1801003200380001F092FA41
:100470003800C9E700500041FF3F00F0FF50004145
:10048000AC08002010B50023FFF7B2FF10BD00003C
:10049000054B10B51B888B4200D90B0000221900B8
:1004A000FFF7F0FF10BDC046DE00002007B50022B8
:1004B0006B461100D81DFFF7E5FF07BDF0B597B0FB
:1004C00001F0C4F90823C44CC449A28B1A4002921B
:1004D0002FD011224020A3837833A372C0244A7006
:1004E00088714B71BE4BBF4D5A68A4052A40224308
:1004F0005A605A692A401443BB4A5C611A60BB4A7D
:10050000BB4C1A615A6814408022920222435A60FE
:100510005A68920B92035A600023B64A48711370CE
:10052000B54A1360B34B1878431E9841C0B217B058
:10053000F0BD10220B7A1342F4D0B04D0A72EE795E
:10054000AF7932023A4312B201926A469288AB887E
:1005500000926A7A287A1202104300B282B20392A1
:10056000EA7AAD7A12021543A54A15804025A54ABC
:100570004D7193422AD049D881246400A34200D10E
:10058000A3E117D8822B00D17FE108D8802B00D1BE
:100590006FE1812B00D172E120238B71C2E78022B1
:1005A00052009342F8D00222FF329342F4D1FFF777
:1005B0007DFFB7E7C024A400A342EDD00DD8A2224E
:1005C000FF32934202D0904A9342E5D100210822A3
:1005D00004A801F0E8F908216EE18C4CA342E6D0B2
:1005E0008B4CA342D8D1009B002BD5D10F3382B2C4
:1005F0001A40531E062BCFD80832774B5201D2181F
:10060000030600D45FE120235371D0E7814A93426F
:10061000CDD000D982E0804A934210D8013A93426B
:1006200000D395E0813AFF3A9342B5D1FFF73EFF00
:100630008023019A5B421343DBB2A37272E78822E4
:100640006C481201934200D111E180329342A3D150
:100650006B461B7930260370FFF728FF03239C4667
:1006600062463E33FF33E254C0225D4B5D49586C15
:1006700092050840104358644620FF3025546748CF
:1006800067461864902040002654586B8026084026
:100690001043586392204000265461481863B020EC
:1006A00040002554586F08405867B2204000265437
:1006B0003C302754FC3884469C44604667460068BA
:1006C000084010433860A620FF3025541800554FCD
:1006D000A0300760C0203027400027541F00943707
:1006E0003868084010433860C22040002654180083
:1006F0004D4F90300760E0204427400027540430DD
:10070000255426541C00C4342068D43308401043B8
:100710002060186801400A431A6003E7434A934285
:1007200000D144E705D8424A934200D13FE7414A0D
:100730003BE7414A934200D139E7404A934200D116
:10074000F8E03F4A934200D026E708213D4806E002
:100750008023009A5B009A4204D112213A48FFF7A5
:1007600097FEDFE68023009A9B009A4202D1822105
:100770003648F4E7032E2AD1032F00D90CE748228C
:10078000002104A801F00FF904AB5E70002F0AD11C
:10079000042304AA1370092204A98A70CB7004AB45
:1007A00019781800DBE72A4BBF00FC58200001F045
:1007B00002F9013004AB4000187000235A1CE35CBE
:1007C000002BECD0510004A843541300F6E70F2E81
:1007D00042D105211F48C2E700500041FF500041AF
:1007E000AC070020FFFFFF8F6C070020B00800203F
:1007F000FF3F00F0DD0000205807002068070020C0
:10080000DE000020A1030000A1020000010300009F
:1008100002030000210900008106000038090020C1
:10082000F4080020040A0020C00900202120000054
:10083000210A0000210B000021220000A1FE00007F
:10084000A121000098000020C41900000800002029
:10085000141A000000000020212E02D1092138487E
:100860007DE7222E00D097E62121364877E7012147
:1008700075E76A46128904AB1A80022191E70023CA
:10088000022104AA1380100069E76A46128904ABAA
:100890001A800F2382B21A40072A00D97CE6083258
:1008A00041335201184209D0274BD21893799B0645
:1008B0000221DB0F04AA138004A850E7224BD218B0
:1008C0009379DB06F4E710239EE6009B002B00D013
:1008D00062E60F3382B21A40531E062B00D95BE644
:1008E0005201030613D51949174BD318521820216A
:1008F000D079084200D15AE65171127A2A4200D1C9
:1009000055E64022FF331A723E3A5A714FE61020E4
:100910000E490D4BD3185218D179014200D146E649
:100920005071117A2022114200D140E6FF331A7231
:100930001F3AEAE7002304AA13800121A3E7C04677
:100940008C000020D819000000500041FF500041E9
:1009500010B5FFF741FC0022034B1A700223034A33
:1009600011780B43137010BDDD00002000500041D2
:1009700010B50C000122FFF785FD200010BD10B559
:100980000C000122FFF77EFD200010BD70B50400B1
:100990000D00FFF793FD03000020834204D00222E4
:1009A00029002000FFF70EFD70BD70B505000C009A
:1009B000FFF784FD002807D0002302222100280031
:1009C000FFF705FD200070BD0400FBE730B5030014
:1009D00020251C1AA24200DC30BD0C78002C03D06C
:1009E00001311C700133F4E71D70FBE7F8B580227C
:1009F0000C00050092000021200000F0D4FF002D23
:100A00000CD13E224E49200000F0C4FFFF235522A6
:100A10005B00E2544B4B9218E254F8BD402D33D8A2
:100A20006B1E1F2B00D9203B002B0AD110225242F3
:100A300022800F326280A280E28005322281424A07
:100A40006281F0261B025A1C581C404D404F92B246
:100A5000FF30FF36191FA94204D81100BB4200D154
:100A60003C4921803C495918B14206D83B498C4643
:100A70001100634500D1374921800132013392B220
:100A800002348342E6D1C8E7442D24D8412DC4D195
:100A90002B490B222B312000FFF798FF304E2823E3
:100AA0003500E37210357036B542B6D029002B7888
:100AB000203423776B7810396377AB780B22A377D8
:100AC000EB782000E377AB881835A3761B0AE37632
:100AD000FFF77CFFE8E72A00453A012A0BD81823E4
:100AE0005A431F4B9B18DD68280000F064FF290063
:100AF0000200200016E02B00144A473B934214D812
:100B0000184A19482260194A19026260FE225200EE
:100B1000A050636180232000DB00FC3AA361E16008
:100B20002261203000F036FF77E7114BE918114BB6
:100B30004902994200D970E780229200D9E7C04665
:100B4000241A0000FF01000004040000FF0300005D
:100B500003040000FFFF0000FCFBFFFFF3050000A3
:100B6000CC1A00005546320A306FB10A57515D9ECB
:100B7000C9FBFFFFFFFF0300F8B517001E000A685E
:100B80004D4B0C009A4275D14C4B4A689A4271D138
:100B9000FE2252004A4B8A589A426BD18B68DB077F
:100BA00011D4802322695B009A420CD1E068C3B261
:100BB000002B08D1434B444AC318934203D8210069
:100BC000203100F0DBF8002E4DD0A369002B4AD075
:100BD00031683E4A8B4206D0934201D8002901D0A9
:100BE00001235B4233606369934264D80721012289
:100BF00019408A40DB08F318197AD2B2114204D1A5
:100C00000A431A72736801337360726833689A42D8
:100C100051D3002F4FD12E4B1B681E332D4A13602A
:100C200049E0FF2B47D9106015682B4B451B103549
:100C30006D029D423FD82100280000F09FF8611C02
:100C4000681CFF31FF3000F099F834E0002B32DBF4
:100C500001235B4213601E4B1E4A1B6896331360D0
:100C600000230B6027E0002F25D1194B1B682D3383
:100C7000FF33D3E719491A4B0A689A421BD9194A1C
:100C800013684428E2D9002BCEDA230021000F3369
:100C90002B311D78002D0ED101338B42F9D1124B2F
:100CA000E51829780139C9B2FD29BAD9013B9BB2AF
:100CB000013D002BF5D1F8BD5546320A57515D9ED6
:100CC000306FB10A00E0FFFFFFDF030063040000A4
:100CD000340B0020380B0020FFFF030058070020D2
:100CE0007F320200A0000020FF010000074B1A0025
:100CF000197DC907FCD52021FF311983044940081B
:100D0000D8611980137DDB07FCD570470040004196
:100D100002A5FFFF002330B59A4200D130BD9C00F0
:100D20000D5901330551F7E7F0B58025104B114EF1
:100D30005C68114FAC435C60002A00D1F0BD140028
:100D4000102A00D91024121B1E801D7DED07FCD532
:100D5000A400A44600240D59055104346445FAD179
:100D6000001909191F801C7DE407FCD5E4E7C04683
:100D70000040004144A5FFFF04A5FFFF802270B59D
:100D8000002304000D005200E958E058814203D1CD
:100D900004339342F8D170BD2000FFF7A7FF402233
:100DA00029002000FFF7C0FFF5E7F8B5030047333F
:100DB00004001A78402103000020FFF793FA00286E
:100DC00001D10020F8BD0023257923706BB2002BE0
:100DD000F7DB3F272000A61DF38F2F404830C018B7
:100DE000611D3A0000F0D6FD3F23F08F9D43C019EE
:100DF00080B2002D01D1F087E3E70023F387E1E71C
:100E0000F0B50C001F00060093B001923F25AC42E4
:100E100003DC2500002F00D140373B0002AA2B4302
:100E2000137002AB31002A00581C00F0B3FD6B4672
:100E300040211A7902A80123FFF7DAFA7619641B18
:100E4000E4D113B0F0BD030010B547331A78043174
:100E500048300023FFF7D4FF10BD0000F7B50400B1
:100E6000FFF7A3FF00283FD0230048339A88A06CE7
:100E70001A80002201385A80082862D800F080FDCC
:100E8000150521252328453C35002F4E300000F064
:100E900092FD0500200031004C302A0000F07AFD60
:100EA00029002000FFF7CFFF1EE00123E364FF339A
:100EB00023658023DB006365A0235B00A36510210D
:100EC000EFE700F0AFFC0021EBE700F0DFFCFAE712
:100ED00020000021FFF7B7FF206D1C4B984203D97B
:100EE00021005431FFF74AFFF7BD2100626D5831F0
:100EF000206DFFF70FFFE6E72000656D216D4C3098
:100F00002A00FFF707FFA900CBE727000026636D43
:100F1000256D00934C37009BB34201DC5900C0E7BC
:100F200000216B1CFF330193287800F02BFC019B00
:100F300001350100AB42F7D13880013602371D0080
:100F4000E9E701225A80BEE72C1B0000FF1F0000CA
:100F500004480622030010B547331A70FFF77EFFDE
:100F600010BDC046E0000020024A53785BB2002B5F
:100F7000FBDB7047000C004010230249CA681A428C
:100F8000FCD07047000800401E21F8B50226254A13
:100F9000254C5368254D8B4333435360A660FFF7C0
:100FA000E3FF234B6360FFF7DFFFAE84FFF7E4FF4F
:100FB000204B1B689B0E3F2B00D1203B00260227B5
:100FC0001D4A9B0213431D4AEA62AB62AE84FFF7DF
:100FD000D3FF1B4BAB84FFF7CFFFAB8C3B43AB8402
:100FE000FFF7CAFF3F226388934380221F43678035
:100FF0006388D20113436380A660FFF7B5FF114BEE
:101000006360FFF7B1FFC0210F4A104B10485360D7
:10101000036A09061B021B0A0B430362072396603F
:101020001360F8BD00400041000C00400008004083
:101030000600010024608000FF01000080BB0A1C44
:10104000240500000007030010E000E0E7030000B3
:1010500000ED00E010B500F02DFC10BD10B5054C02
:1010600012220021200000F09EFCF0232370E63BBA
:10107000E37110BDA304002070B5130006000C003E
:10108000150000200A000121FFF72CF900239842E7
:1010900006D02B0022001F213000FFF723F9012387
:1010A000180070BD10B504220D210248FFF7EAF9BF
:1010B00010BDC046A500002010B50B480B49427971
:1010C000037912021A4383791B041A43C3791B065E
:1010D00013431A0A0B714A711A0C1B0E8A71CB71D9
:1010E000FFF7E0FF10BDC04684040020A5000020EB
:1010F00070B504220D00FFF7C5F9164C85420FD0DC
:10110000FFF7ACFF012304222373134B9A700022D4
:10111000DA701A715A719A711A735A73FFF7CCFF09
:10112000FFF79CFF00232373637A217A1B020B4392
:10113000A17A09040B43E17A09061943491B0B0AFA
:10114000217263720B0C090EA372E172FFF7B4FFF8
:1011500070BDC046A5000020A304002070B5194C46
:10116000002105001422200000F01DFC1649002D6E
:1011700021D022000823C87D08323F26497C314017
:101180001C2901D0B14207D11C21117012395170B4
:101190000C330539D170DBB2191C834200D9011C14
:1011A000C9B2002D0BD0023B9BB21B022380200052
:1011B000FFF79EFF70BDC87C221D0423DDE7013BC5
:1011C0002370F4E76804002084040020F7B52B4B5B
:1011D00001AA597C0700D170997C00249170D97CB8
:1011E0005170197D11706A46961C9A7D7270DB7D74
:1011F000337033889C4207D3FFF730FF0022204B27
:101200001A73FFF759FFF7BDFFF758F90028FAD016
:101210001C4D002F20D0019B2900E018FFF7E6FBB2
:101220008021042289002800FFF72CF9144A013498
:10123000517A137A09021943937A1B041943D37A1A
:101240001B060B4310495B18190A13725172190CD3
:101250001B0E9172D372CCE780213B00280005223F
:101260008900FFF7B4F8019B3A00E0182900074B0A
:10127000FFF782FC00F064FBD8E7C046840400203E
:10128000A50000206802002000FEFFFFB804002037
:10129000F0B587B0FFF75CFE484F0022052138000B
:1012A000FFF7EAFE002858D07B7A3A7A1B021A43ED
:1012B000BB7A434D1B041343FA7A002612061A43E5
:1012C0006B4601921B792B72130A6B72130CAB7273
:1012D000130EEB72FC7B1E2C1BD01ED8122C3ED0A2
:1012E00013D8B44250D0032C2ED0FFF7B7FE012301
:1012F00005222B73334B20219A7000221973DA7068
:101300001A715A719A715A7341E01A2C36D01B2CFB
:10131000EBD1FFF7A3FE2E7339E0282C3AD00BD87F
:10132000232C3BD0252CE0D1802327489B0243600F
:10133000264B082103600EE02F2CEAD05A2C21D036
:101340002A2CD2D1300026E0FB7C191C122B00D9AC
:1013500012211C48C9B2FFF7CBFE07B0F0BD1C4CF0
:101360001C49200018220830FFF730FBFB7C191CB9
:10137000242B00D92421C9B22000ECE73000FFF76C
:10138000EDFEEAE70120FAE7FFF768FE2C73FFF7AE
:1013900093FEE2E70120FFF719FFDEE70C240E4978
:1013A000220003A800F0F6FA019BA34203D92C7295
:1013B0006E72AE72EE720C2103A8CCE7840400209A
:1013C000A5000020A30400207C04002000001F3F93
:1013D000B4000020021A0000861B000080B500AF98
:1013E00072B6BFF35F8F0022064B1A70EFF30883CB
:1013F000054A1360036883F3088843681847BD46AD
:1014000080BDC046A4000020280B002007B50100C5
:101410000122684600F0E8F908216846FFF7A8FABB
:1014200007BD000000227A23F0B58D4985B08D4CB0
:1014300000AF22600B70FA607B60FFF729FF8A4DD6
:1014400040212800FFF7A2FA884B18603B7B2B5401
:10145000002804D000F074FA854BFA681A60854BB6
:10146000FA681D60844B1A608348804B02681B68D1
:101470009C469A42E1D27F4D29680B78FF2B37D0EA
:101480007E4E232B00D0C8E0754B1B78532B34D1F4
:10149000013202606046336801312960821A9A4243
:1014A00000D91A00764D20682A6000F073FA72485D
:1014B000296803686F4ACB18013B036010684B1E14
:1014C000C31813606D4B6F4D1B682970C9B29942E8
:1014D00003D2591A2068FFF768FAC046604B3A7980
:1014E0001A70664BFA681A60624A13680133136017
:1014F000614A136801331360B6E7522B04D1316897
:101500002068FFF73CFAE9E74F2B03D133682268E4
:101510001370E3E7482B03D1336822681380DDE7BB
:10152000572B0AD1584B22689A4202D1574800F0F3
:1015300025FA236832681A60D0E76F2B04D10121A5
:101540002068FFF715FAC9E7682B05D10221236847
:101550001B8833603000F4E7772B04D12368042123
:101560001B683360F6E7472B12D13068FFF736FF70
:10157000474B1B6883F308880121464B1970BFF362
:101580005F8F62B6444B45481B78002BA6D0D8E746
:10159000542BA3D04E2BA1D0562B02D12A21404848
:1015A000CFE7582B0CD135683E4B9D4202D9032121
:1015B0003D48C6E728000135FFF798FBFF35F3E704
:1015C000592B0ED13268394B002A04D122681A6097
:1015D00003213748B5E7920819682068FFF7A4FB94
:1015E000F6E75A2B00D079E7336800262568EB1818
:1015F000BB60BB689D4209D101212E48FFF7B8F9B5
:101600003000FFF703FF03212B489AE728783100C9
:1016100000F0B8F801350600EBE71A00303AD1B215
:10162000092904D833681B01134333605CE71A00AF
:10163000413A052A03D83268373B1201F4E71A0011
:10164000613A052A03D83268573B1201ECE72C2B8C
:1016500003D133682360FB68E7E7014A1370FAE7B8
:10166000D80A0020240B0020E00A0020D00A002025
:1016700058070020D40A0020DC0A00202C0B002090
:10168000300B0020CC0A00200CED00E00A000A001C
:10169000280B0020A400002050050020BC1B0000E7
:1016A000921B0000FFFF0300BE1B0000540500203A
:1016B000C21B0000C61B0000C81B000082B0EFF375
:1016C00005833F221340103B5BB20193019BFEE771
:1016D000FEE700002048214970B5884204D000236D
:1016E0001F4CCA18A24230D300211E4B1E4A9342FF
:1016F0002FD3FF211D4B1E4A8B43936002220C25E2
:10170000082430261B4B1C485A62C378FC398B4393
:101710001343C370C378AB432343C370174B987B09
:10172000B0430600202030439873987BA8430443BD
:101730009C73987B884302439A738023104A5168B4
:101740000B435360FEF7B6FCFEE7C5580433156043
:10175000C7E702C3CBE7C046CC1B00000000002057
:10176000DC000020DC0000203C0B0020000000001A
:1017700000ED00E0FC7000410050004100480041D5
:10178000004000410022F0B5114E7388934216D1FB
:101790000824D3019BB21DB2AC4667465D00ABB2D4
:1017A000002F02DA0B4B5D40ABB2013CA4B2002C1F
:1017B000F1D1B352802302329B009A42E8D10B0A46
:1017C00058404000305A0902484080B2F0BDC0463F
:1017D000580500202110000001230002984200D883
:1017E0007047C0460133F9E7F0B506001C2500201C
:1017F0000F270C00EC403C40002A05D1002C03D1FF
:10180000002D01D0002809D0431C9C46331820002D
:101810003030092C00DD073018706046043D2B1D68
:10182000E7D1F0BD054A064B1A60BFF34F8F054A5A
:10183000054BDA60BFF34F8FFEE7C046EF6926F035
:10184000FC7F00200400FA0500ED00E00B4A10B513
:101850001368002B0ED10A4911600A490A68013247
:101860000A6009490868002806D0824204D30B6048
:10187000FFF7D8FF013B136010BDC046640700208E
:10188000DC050000340B0020380B0020054A064B15
:101890001A60BFF34F8F054A054BDA60BFF34F8FD5
:1018A000FEE7C046EF6916F0FC7F00200400FA0551
:1018B00000ED00E01B4A10B513681B4901331360AB
:1018C0001A4A1368013313600A68002A0CD01848BA
:1018D0001018834203D18024164824058461934262
:1018E00001D100230B6010BDDBB2134A002B11D1D4
:1018F0008021104B090599611378104918000A38A6
:10190000C0B2F02802D908784042087009785B1804
:101910001370E8E712789A42E5D18022054B120550
:101920005A61E0E758070020600700205C070020AC
:1019300018FCFFFF00440041D9000020D80000201F
:10194000074B084A1B681168994207D2FA21C9005F
:101950005B1813608022044B12055A617047C04621
:101960005C07002060070020004400418022024BF9
:1019700012059A609A617047004400417047000068
:1019800002B4714649084900095C49008E4402BC12
:101990007047C046002310B59A4200D110BDCC5C00
:1019A000C4540133F8E703008218934200D1704712
:1019B00019700133F9E70023C25C0133002AFBD11F
:1019C000581E704712010002EF020140D80466EF72
:1019D00001420102030100000697FF0901A1011560
:1019E0000026FF0075089540090181029540090114
:1019F000910295010901B102C073656E7365426F72
:101A0000780073656E7365426F78204D43550034DE
:101A10003234320000000000F9190000021A000000
:101A20000F1A0000EB3C90554632205546322000FC
:101A3000020101000240003E1FF8200001000100E9
:101A40000000000000000000000029420042005396
:101A5000454E5345424F5800000046415431362010
:101A600020203C21646F63747970652068746D6C0C
:101A70003E0A3C68746D6C3E3C626F64793E3C7318
:101A800063726970743E0A6C6F636174696F6E2E65
:101A90007265706C6163652822687474703A2F2FC8
:101AA0007777772E73656E7365626F782E64652223
:101AB000293B0A3C2F7363726970743E3C2F626F3E
:101AC00064793E3C2F68746D6C3E0A00494E464F67
:101AD0005F554632545854002C1B0000590000003A
:101AE00002000000494E44455820202048544D0033
:101AF000621A0000690000000300000043555252C2
:101B0000454E5420554632000000000000000800F9
:101B10000400000043555252454E542042494E00A5
:101B20000000000000E003000404000055463220DD
:101B3000426F6F746C6F616465722076312E32363D
:101B40002E302053464852420D0A4D6F64656C3A60
:101B50002073656E7365426F78204D43550D0A42C0
:101B60006F6172642D49443A2053414D44323147EC
:101B70003138412D53656E7365426F782D4D435555
:101B80002D76300D0A000000000800001F40020002
:101B9000020076312E31205B41726475696E6F3AB6
:101BA00058595A5D204D617920203120323031382A
:101BB0002031353A34353A31380A0D000600580ADA
:101BC0000D00590A0D005A00230A0D00050F0500EB
:101BD0000000000009028200040100800A080B00D6
:101BE00002020201000904000001020201000524B2
:101BF0000010010424020605240600010524010347
:101C000001070583030800FF09040100020A000020
:101C1000000705810240000007050202400000099C
:101C20000402000208065000070584024000000775
:101C3000050502400000090403000203000000093A
:101C40002100010001222100070586034000010751
:101C50000506034000010000090403000203000020
:101C60000300000000C2010000000800FFFFFFFFAA
:101C70000155534253000000000000000000000026
:101C800000800202200000000000000000000000B0
:101C90000000000000000000000000000000000044
:081CA000312E303001C80000B4
:101FF0000000000000000000000000002C1B00009A
:10200000008000205165010039650100396501003B
:1020100000000000000000000000000000000000C0
:102020000000000000000000000000003965010011
:10203000000000000000000039650100A5650100F6
:102040003965010039650100396501001936010063
:10205000855C010039650100396501003D650100BD
:1020600039650100453F000039650100553F00001A
:10207000713C0100813C0100913C01003965010087
:1020800039650100396501003965010039650100D4
:10209000000000003965010039650100E5350100E7
:1020A00039650100396501003965010039650100B4
:1020B0000000000010B5064C2378002B07D1054B1B
:1020C000002B02D0044800E000BF0123237010BDA4
:1020D000B00200200000000030FF0100044B10B5EA
:1020E000002B03D00349044800E000BF10BDC046E8
:1020F00000000000B402002030FF010070B5FA2497
:1021000005000221152014F045FC0121172014F0D0
:1021100041FC01211C2014F03DFC0121172014F08A
:1021200085FC01211C2014F081FC0121072014F002
:1021300031FC0121082014F02DFC0221002014F0B4
:1021400029FC0021082014F071FC0021072014F064
:102150006DFC01210E2014F01DFC01210E2014F055
:1021600065FC0121092014F015FC0121092014F05F
:102170005DFC02210B2014F00DFC01210A2014F05B
:1021800009FC02210D2014F005FC01210C2014F0A3
:1021900001FC0121162014F0FDFB0021162014F093
:1021A00045FC0221182014F0F5FB02211A2014F03E
:1021B000F1FB64000121192014F0ECFB200014F065
:1021C00035FA01211B2014F0E5FB00211B2014F03F
:1021D0002DFC02211D2014F0DDFB02211F2014F034
:1021E000D9FB01211E2014F0D5FB200014F01EFAAB
:1021F000280070BD70B53D4D0400280012F064FA4F
:10220000061E10D028003A4913F0F7FF0A222100D9
:10221000280014F05AF83749280013F0FFFF200077
:1022200014F004FA70BD01210E2014F0B3FB31004C
:102230000E2014F0FBFB0121092014F0ABFB03215D
:102240000B2014F0A7FB03210A2014F0A3FB0321A9
:102250000D2014F09FFB03210C2014F09BFB310098
:10226000092014F0E3FB0121162014F093FB012157
:10227000172014F0DBFB0321182014F08BFB032143
:102280001A2014F087FB0321192014F083FB01218D
:10229000162014F0CBFB01211B2014F07BFB012145
:1022A0001C2014F0C3FB03211D2014F073FB032139
:1022B0001F2014F06FFB03211E2014F06BFB012183
:1022C0001B2014F0B3FB0C4B0C48E11811F085F9FE
:1022D000FA20800014F0AAF972B6BFF34F8F084BB2
:1022E000084ADA60BFF34F8FC046FDE7D45500209F
:1022F00010A901001BA9010018FCFFFFA44E00203B
:1023000000ED00E00400FA0537B5144C022520006A
:1023100012F0DAF9124B186816F02AFC0095020048
:102320000B00200014F09AF80E4B0A2219682000C6
:1023300013F0C1FF0C4B186816F01AFC0095020050
:102340000B00200014F08AF8084B1868FFF752FFC2
:10235000FA20C00014F06AF937BDC046D4550020F9
:10236000DC02002004000020C83E002008000020FD
:1023700070B50E48FFF7C2FE0D4C0E49200014F058
:10238000C8F80D4D0D492A00200014F029FC0C4E10
:10239000300000F02FF90B4C3100200001F080FFDD
:1023A0002A000949200014F01BFC70BDCC0200205B
:1023B000D0020020A4DA01000000002075640100B2
:1023C000CC3E0020E00200200D410000962110B517
:1023D000064C8901200011F0C9FF200012F074F9A9
:1023E000FA20800014F022F910BDC046D455002018
:1023F000F8B5040010000E00150013F027FE0123AD
:10240000002806D12062300001F0FCF8002802DA32
:1024100000231800F8BD14F0D3F80700266A002E38
:1024200009D114F0CDF8094BC01B984203D83000F5
:1024300000F028FCF2E7216A0029E9D0280013F017
:1024400011FE002323620133E3E7C0461F4E000064
:10245000064B0022190028310A701A601A00FF2169
:1024600029321170024A1A677047C046E03E0020C8
:1024700060EA00000020704713B56B460268D9710E
:102480000733546819000122A04716BD13B56B46E7
:10249000DC1D036801225B6A21009847012801D1F5
:1024A000207816BD01204042FBE77047007C40B217
:1024B0000130431E9841C0B270470000102110B592
:1024C00041560400002904DB024801F013FAFF23FF
:1024D000237410BD703F0020102110B5415600201C
:1024E0004B1C02D0014801F0BEF910BD703F002026
:1024F000036870B51B6904000D001600984780B290
:10250000002807D01021330061562A00034801F04B
:102510008CFA70BD01204042FBE7C046703F0020AE
:10252000036810B51B6904009847002805D01021E6
:102530000348615601F04EFA10BD01204042FBE70E
:10254000703F0020102110B541560020814202DB6F
:10255000014801F079F910BD703F0020102213B539
:102560008A560400531C07D1002100910B000A0079
:1025700013F084FC200016BD014901F088F9F9E749
:10258000703F0020102170B54156060000204B1C02
:102590000DD0074D280001F084F910210400715678
:1025A000280001F07EF924020012204380B270BDA1
:1025B000703F002070B5037C04000E0015007F2BD7
:1025C00006D8002A04D00368DB6A9847002804D1A3
:1025D000012300256360280070BD10212B00615687
:1025E0003200034801F062F90028F4DCF0E7C0464D
:1025F000703F002000234360FA239B008360034B5D
:1026000008330360FF2303747047C0462CA9010000
:10261000F0B589B00393022304AE3380002352BA8D
:1026200072800A7D04009A4200D10B6973602368AE
:102630002000DB6A9847002803D0236820009B6AAB
:102640009847194D039B01220221280001F0A4F8AC
:10265000070020740020874224DB039BDB070ED594
:102660000E9B83420BD0180000F002F90E9B0190E4
:102670000093022339001A00280001F09EF810216F
:10268000320061561023280001F0A2F80600012054
:10269000002E07D110212800615601F02BF9FF23ED
:1026A0003000237409B0F0BD703F0020F0B50D007C
:1026B000094B89B002932C1D03AB9446C4CCC4C310
:1026C000246802A91C602B7D62460B7500230093D1
:1026D000FFF79EFF09B0F0BD04FC0100F0B50D004E
:1026E00093B006AC039020000492059313F0BEFB58
:1026F000220029000B48FFF77BFE002810D00A4B70
:1027000007AA0C930DABC1CAC1C312680CA91A6009
:10271000237D049A0B7503980095059BFFF778FFBE
:1027200013B0F0BDE03E002004FC010010B5002312
:10273000FFF7D4FF10BD0000034B10B51B68002B42
:1027400000D0984710BDC046543F002010B5D2B20B
:10275000C0B213F0C5F910BD10B5C0B213F058FAED
:1027600010BD10B50400013C00D210BD012013F0D3
:102770005DFFF8E70300002010B5064A1056002B55
:1027800004D003220449FFF7E1FF10BDFFF7E4FF87
:10279000FBE7C0460D00002039270000034B044A28
:1027A0001A6000221A7101325A717047583F002096
:1027B000001BB700F0B585B003283ED1002202AB64
:1027C0000D6807330C894E681A70954222D09642E4
:1027D00030D101961E0001320092194B194F06CBE1
:1027E000380011F0FBF9184B0021187814F01EF98D
:1027F000002C14D02978380011F0F9F8009B3070C3
:102800005A425341F618019B013C5A425341A4B22B
:10281000ED18EDE70122009501921D00DDE70A4B5E
:102820000121187814F002F9380011F057F920004E
:1028300005B0F0BD06204042FAE70120FBE7C046A4
:10284000583F0020B04E00200C00002010B5002A98
:1028500005D00023CC5CC45401339A42FAD110BD98
:10286000002A04D08218017001308242FBD17047E7
:102870000023C15C9AB201330029FAD110007047DD
:10288000002307B50A4A012013700A4A9370FFF724
:1028900071FF01A9084800F06AFA002806D1022158
:1028A000019B05481943019100F065FA0EBDC04631
:1028B000603F0020005D002070100000002010B577
:1028C0000A4CA378834207D16378834205D0002065
:1028D00063780133DBB2637010BD2378002BF6D030
:1028E00000F002FA0028F2D0F6E7C046005D0020B2
:1028F000044A5378002B03D05378013BDBB253706A
:1029000000207047005D002010B5094B5A78002A5E
:1029100003D05A78013AD2B25A7000205A788242D3
:1029200004D11B78834201D000F0B0F910BDC0463D
:10293000005D0020F0B58DB0019312AB049204CB82
:10294000070002927F221B880A40039314AB1B8866
:102950000D00059308AB5A70082218705A80029A2D
:10296000002A45D003995A8852180599521892B2F4
:102970005A80FFF7A3FF041E37D106AB0A90D88018
:1029800009909E1D099B2D021F430997099B4948E9
:102990001D43099508AD6B88099A1B0413430993DD
:1029A000099900F0E8F9041E38D102270990099B23
:1029B00041483B430993099900F0DDF9041E2DD1EC
:1029C0000A90308006AB9C1D22883C4B9A4205D869
:1029D00009A9394800F0CBF900280CD00A9B002B3C
:1029E00026D10324FFF790FF644220000DB0F0BD14
:1029F0005A880199BAE7F4232288FF339A4203D90F
:102A000001202388FFF7ADFE099E3E4009D10AA9A7
:102A10002B4800F0ACF9041EE0D00A96FFF768FFDF
:102A2000E3E706AB9A1DDB8801339BB21380C9E74D
:102A30000A9B08220B936B8829009BB26B800B9832
:102A400000F0BCF9041EE9D10B9B08330B93049BE7
:102A5000002B0AD00B98019A190000F0AFF9041E60
:102A6000DCD10B9B019AD3180B93029B002B10D047
:102A70000199059B0B9A5B1A9B180B930B98039A71
:102A8000029900F09BF9041EC8D10B9B039AD3183E
:102A90000B930A9B0B489B0009930223099A13434B
:102AA0000993099900F067F9041EB7D1FFF72CFFCD
:102AB00004009AE78C10000078100000E703000083
:102AC000000415006C100000F0B5544B87B01B7863
:102AD000002B32D000230193019807B0F0BD63882A
:102AE0009F4209D06388FF1A042F05DD0120FFF7FC
:102AF00041FE0626764261E02378012B60D1EB6827
:102B0000002B08D0EB6860786188059A0839C0B25C
:102B1000083289B29847414B1B78002B06D1AB781D
:102B2000002B03D0FFF7ACFE061E47D13B4B1B78B2
:102B3000002BD1D1019B002B07D1394DEB78002B15
:102B4000C8D0EB78013BDBB2EB7003A9354800F04D
:102B50000EF901900028E9D10122039B1342E5D030
:102B60000124FFF707FE039B2E48A3430393039919
:102B700000F001F901900028D8D1AC70039FBF0488
:102B80003F0D46D0059005A9274800F0F0F8060053
:102B90002000002E10D1059B04AC18000422210057
:102BA0006B60AF6000F0ECF80190638806009BB2A8
:102BB0006380002893D00120FFF7DCFD0196B5E784
:102BC0002378022B04D12B69002BA4D02B699AE720
:102BD0002378042B04D16B69002B9CD06B6992E79E
:102BE0002378062B04D12B6A002B94D02B6A8AE71A
:102BF0002378072B04D1AB69002B8CD0AB6982E71B
:102C00002378052B00D074E76B6A002B83D06B6AA6
:102C100079E702235B42019388E7C046603F0020CA
:102C2000005D00207010000084100000F8B51D0049
:102C3000002803D0002901D0002A04D1002D1BD088
:102C4000FFF71EFE17E00E4CA3689A4214D8636883
:102C5000834211D86368A7681618DB199E420BD807
:102C600000F08EF8002806D16368A2689B189E4287
:102C7000E6D0002DE4D1F8BD0C204042FBE7C04671
:102C8000005D002010B5FFF71FFF10BD13B5012434
:102C900001A9102000F06BF8002812D1019B2342FB
:102CA000F6D101A9013000F062F8002809D1022311
:102CB0000199194206D101A90B2000F058F800280B
:102CC00008D016BD99430120019100F054F8002866
:102CD000F1D0F6E7012301991942F2D099430B2074
:102CE000019100F048F8ECE7002373B50B2069462A
:102CF0000093019300F03BF8041E09D10121009BD1
:102D00000B4207D06946012000F031F8041E08D0BC
:102D1000200076BD19430B2000F02DF8041EF1D0E1
:102D2000F6E70221009B0B4213D00525042601A9DA
:102D30000F2000F01CF8041EEAD1019B33420FD192
:102D40000220013DFFF70DFD002DF0D10424644267
:102D5000DEE71943012000F00EF8041EE5D0D7E7A6
:102D600000F001F8D4E710B500F0DAF910BD10B5A5
:102D700000F0E4F910BD10B500F0E9F910BD000055
:102D8000F7B50700150006000B4B01911C88083CA5
:102D9000A4B2019BD91B8919AC4204D3AAB230005A
:102DA00000F0DEF9FEBD2200300000F0D9F9002865
:102DB000F8D12D1B3619ECE70E000020F7B50700FF
:102DC000150006000B4B01911C88083CA4B2019B26
:102DD000D91B8919AC4204D3AAB2300000F008FA1A
:102DE000FEBD2200300000F003FA0028F8D12D1BB0
:102DF0003619ECE70E0000201FB5002201AB019050
:102E00001981032019000292FFF7D4FC05B000BD20
:102E10001FB5002201AB0290198103201900019215
:102E2000FFF7C8FC05B000BD73B56B460600DD1D9D
:102E3000CF2822D003003B33DBB2012B1DD90B245A
:102E400001212800FFF7E4FF00281CD12B78B342B2
:102E500003D0013CE4B2002CF2D10B240121280064
:102E6000FFF7D6FF00280ED12B78002B03D0013CB2
:102E7000E4B2002CF2D1012006E001212800FFF786
:102E8000C7FF0028DBD0002076BD0000F0B50C00A5
:102E9000002785B0009001928023261C9B019C4254
:102EA00001D91B4B1E880A25B6B202AB0121D81CE2
:102EB000FFF7AEFF002808D102ABDB781B090F2B10
:102EC00010D0013D2DB26B1CEFD100201DE0114B45
:102ED0001B78002B12D1022103A8FFF799FF0028CD
:102EE0000CD0F2E7002DF0D0009B3100D819FFF78D
:102EF0008FFF0028E9D1019B002BE8D0A41BF71914
:102F0000A4B23FB2002CC7D1012005B0F0BDC0462D
:102F100070A90100683F0020F0B585B00AAC2578A3
:102F200001AC2070C3380C2800D96BE013F060FEB0
:102F3000482936363C3C5A076A6A6A6A3A000B0CE2
:102F400063700B0AA370E17005212F4B481E1B789C
:102F5000002B55D10A002D4D7F3366185742F75D7F
:102F60005B007B40013AEB5C012AF7D15B00235404
:102F700089B22000FFF740FF4342584140B205B0FC
:102F8000F0BD0B0ADBB2002D04D163700023A170E9
:102F9000E370D9E7802252421343F6E700236370BF
:102FA000A370F5E7FF23FAE70A0C62700A0AA27021
:102FB000002222711A0AE1706271A3710821C4E72C
:102FC0000B0ADBB2002D09D16370130EE370130CF2
:102FD0002371130AA1706371A271EFE78020404250
:102FE0000343F1E70B0C63700B0AA370130E2371FC
:102FF000130C6371130AE170A371E2710921A4E754
:10300000C1B2B5E70020BAE7683F002076A9010009
:10301000F0B585B006000391302830D8194B1F78E1
:1030200030220023B2425B410A24FFB20293029B8A
:10303000039A0093310004233800FFF76DFF050069
:10304000012805D13800FFF7EFFE0500012813D055
:103050000120FFF786FB0021CF2000910B000A0022
:10306000FFF75AFF013CCF20FFF7DEFEE4B201205C
:10307000FFF777FB002CDAD1280005B0F0BD024B3A
:10308000CDE7C04672A9010073A90100F0B50600A2
:1030900087B00F00FF2827D81F4B1B78FF22DBB219
:1030A00002930023B2425B410A250393039B002253
:1030B0000093310004230298FFF72EFF040001283B
:1030C00014D10298FFF7B0FE040001280ED1039A34
:1030D000042105A8FFF7DAFE0400012806D1059BAC
:1030E0003B60200007B0F0BD0C4BD6E70120FFF796
:1030F00038FB0021CF2000910B000A00FFF70CFFE6
:10310000013DCF20FFF790FEEDB20120FFF729FB34
:10311000002DCBD1E5E7C04674A9010075A90100D7
:1031200013B50024CF202300220021000094FFF7D4
:10313000F3FECF20FFF778FE200016BD10B5FFF795
:10314000A5FF0023012800D0063B180010BD10B5D4
:10315000FFF75EFF0023012800D0063B180010BDDA
:10316000F0B514000A27002687B003900291012CC5
:1031700001D1260001340025230000952A0003997F
:10318000C820FFF7C9FE012816D00120FFF7E9FA91
:103190000021CF2000910B000A00FFF7BDFE013F88
:1031A000CF20FFF741FEFFB20120FFF7DAFA002F30
:1031B000DDD10620404212E0C820FFF735FE01288D
:1031C000E3D1002E0DD02A00210005A8FFF75EFEF6
:1031D00002AB1B7B029A13700128D6D1002007B0E6
:1031E000F0BD320021000298FFF750FEF4E7000026
:1031F0000A23F0B5160089B0049005910293012EC0
:1032000000D101360027330000973A000499C72007
:10321000FFF782FE012849D1C630FFF705FE0128DD
:1032200044D1340007AB1F80039080239B019C4254
:1032300056D8250003230B2004AA801810225242DE
:10324000134303990370FFF7D7FD00282ED1059B88
:103250002900D819FFF7D0FD002827D1244B1B786F
:10326000002B1DD0641BEF19A4B23FB2002CDCD19F
:103270001F4B07A81D786B1E9D410235A9B2FFF7B1
:10328000C7FD002812D107AB5D196B1E1B78002B00
:103290000CD1023D2B78C32B08D1200009B0F0BD22
:1032A000022107A8FFF7A8FD0028DBD00120FFF7C7
:1032B00058FA0021CF200B0000910A00FFF72CFEE6
:1032C000CF20FFF7B1FD0120FFF74BFA029B013B36
:1032D000DBB20293002B00D091E706204042DDE7ED
:1032E0008025039BAD01002FA5D00223A3E7C04694
:1032F000683F0020F0B5170089B0022804D00125EE
:103300006D42280009B0F0BD012943D107252E4E9A
:10331000337834783078DBB201300721059313F02D
:10332000EBFDE4B2294BC9B2240131701C19A37A18
:10333000002B2AD16B4614255D57002DE1DB1022AE
:1033400000212000FFF78CFA0123A372204B1A887A
:10335000013292B21A801A88002A03D11A880132E7
:1033600092B21A801B889BB2E380FB07C9D5212348
:10337000E372002307AA1570502102930193009372
:1033800002200433FFF7D6FABBE7013DEDB2002D72
:10339000BED1B4E70229B2D1042303260D490E4859
:1033A0000D780C780A7824010132324024180A7012
:1033B000A27AEDB2002A02D107356DB2BDE7013B1A
:1033C000DBB2002BECD19AE76C3F00202C5D002093
:1033D0006A3F00206D3F00209C5D0020F0B5140086
:1033E00089B000282DDB00292BD0174B0701DA19F3
:1033F000937ADBB2012B24D1002C22D0D47A44263C
:10340000A446654605AC1D4202D0D37A07366372E6
:10341000207208222000FFF719FA0B4B2200DD1959
:10342000EB88310063810023022002930193009313
:103430000C33FFF77FFA002801D00920404209B081
:10344000F0BD0620FAE7C0462C5D002070B588B0BC
:10345000002833DB002931D0AF23DB009A422DD87E
:10346000174C0601A3199D7A012D27D1DB8804ADE5
:10347000AB8128706A805023062800DD0C3BA01920
:10348000C67A4524F60708D50E4C038926680E48EF
:103490009BB24C24864200D85523802004430293DB
:1034A0000192009110232A0021007E38FFF742FA92
:1034B000002801D00E20404208B070BD0620FAE777
:1034C0002C5D0020643F00203F130000F0B5070092
:1034D00087B010001A00002F29DB164C3B01E618BC
:1034E000B57AEDB2012D22D11951B0800020317B87
:1034F00081421AD13573F07A4621284200D0073133
:10350000002A00D1013AE418E388049204AAD38087
:103510000023177102200293019300930833FFF7F1
:1035200009FA002801D00E20404207B0F0BD062065
:10353000FAE7C0462C5D002070B586B0002825DB78
:10354000144C050161198E7AF6B2012E1ED1CB887A
:1035500005AA538000238B72CB801070C87A492152
:10356000304200D0053102930193009302200423DE
:10357000FFF7E0F9061E01D00926764260191022F5
:103580000021FFF76DF9300006B070BD06267642C7
:10359000F9E7C0462C5D0020F0B589B005920028FF
:1035A0002BDB174C0701E519AE7AF6B2012E24D1B8
:1035B000AA7A002A02D1002009B0F0BD6A46928A98
:1035C0003951AA802A7B002AF5D12E73002B00D115
:1035D000013BE4190693E38806AAD3800023107107
:1035E000482102930193009302200833FFF7A2F9C8
:1035F0000028E1D00E204042DEE70620FBE7C0466F
:103600002C5D00201FB50400FFF732F9C3B2402B38
:103610000BD8002201330292019200924A2122002B
:103620000220FFF787F904B010BD06204042FAE7F8
:10363000F0B599B01EAC24880591A446002800DAA4
:103640007FE0002B00D17CE03F4E05017419A77A82
:10365000F9B2012900D074E0059F022F5BD1062842
:1036600000DD6EE0E77A0F4200D16AE0012A0DD159
:103670001868E37A002804D005991943E172002004
:1036800002E0059A9343E37219B0F0BD032A0AD110
:103690001868E27A1023002802D01343E372EEE7A1
:1036A0009A43E272F0E7042A0CD11B687519002BCB
:1036B00004D04023EA7A1343EB72E0E74022EB7A2E
:1036C0009343F9E7022A3CD162463F2A39D875195B
:1036D000EA8806AC62806246002602251900207046
:1036E000079208A840226570FFF7B0F848230296B9
:1036F00001960096220051212800FFF71BF9C31CF8
:10370000BDD102960196009648232200D1212800BF
:10371000FFF710F9B3E71B6806A90693E3884A711F
:10372000CB80002308710A000293019300934F217C
:1037300008330220FFF7FEF80028A5D009204042F8
:10374000A2E70620FBE7C0462C5D0020704710B5BD
:10375000040012F0C1FF200010BD0000F8B5040005
:103760000C4B0500083308C49B23FF279B00C61899
:1037700000212000217067702181E1612162616276
:1037800028301022383415F0C4FCB442F0D128009F
:10379000F8BDC04678AA010010B504000800110069
:1037A0001A00FFF7A7FD002806DB38230122434358
:1037B000E3181A71FE325A7110BD13B504AC08003B
:1037C00011001A0008CC24880094FFF731FF16BDC1
:1037D000F7B50E001700050039001A003000FFF79A
:1037E000FDFD002188421BDB3824022374432C1981
:1037F000237112F0E5FE01902379022B0AD112F019
:10380000DFFE019BC01A0F4B984203D80020FFF740
:1038100039FAF1E723790021032B03D00123237127
:103820000800FEBD38237343A1817A88ED186A82AF
:103830007B680A006B6130000B00FFF747FE012137
:10384000EEE7C0461F4E000070B5040000200D00DA
:10385000FFF718FA38216943641820790338434286
:103860005841C0B270BD70B5040000200D00FFF7D4
:1038700009FA3821FD22694361180B790020033BC6
:10388000134203D10C23C85E8B6AC01870BD382365
:1038900010B504005A438918496912F00BFB200047
:1038A00010BD382359434018408A7047F8B50700C7
:1038B00000200D001C001600FFF7E4F938236B43CD
:1038C000FF183B79032B10D1A2B20023310028004E
:1038D000FFF7BCFD002809DA0E3006D1044B18783A
:1038E000002802D1FFF7CEF9EEE700242000F8BD52
:1038F000603F0020F8B50E00382405000020FFF7D7
:10390000C1F9FD2374432C1920790338184009D1DB
:103910000C22A35E002B05DDA08101230200010023
:10392000FFF784F9002338272371FF3363713B00CD
:103930007343EB18186A002801D015F0A3FB7743F6
:1039400038000021EB192C3019625962996228184D
:10395000A181102215F0DDFB3000FFF7EDFDF8BD71
:10396000F7B538244C430419256A06000F00002DD2
:1039700006D1B820C00015F07BFBA5622062606212
:103980003824B8217C4334190C23E25EC9001500A9
:103990008A4200DD0D000020ABB20193D30F9142AB
:1039A000434138225743F619DBB2AAB2316AA06804
:1039B000FFF73CF90300002083420AD1336AB56265
:1039C0007362A368019A5D19A389A5609B1AA381FC
:1039D0000130FEBD70B50E00382405000020FFF751
:1039E00051F9FD2274432C192379033B134202D071
:1039F0000120404270BD31002800FFF734FF00284D
:103A0000F6D0A36A002B05D0382070432818436AEB
:103A10001878EFE70C22A35E002BF5D031002800C8
:103A2000FFF79EFF0028EFD1E2E7F0B587B00190E5
:103A300000200C0004921D00FFF724F93823634393
:103A4000019AD318FD2203931B79033B134204D040
:103A500000230293029807B0F0BD21000198FFF700
:103A600002FF0028F4DD854200DD050000230293FB
:103A700038336343019AD3180593059B9B6A002D45
:103A800028D0002B1BD0059B9E6AAE4200DD2E0085
:103A900038276743019B3200DF19796A049815F0D3
:103AA0001CFB7B6AAD1B9B197B62BB6A9B1BBB62C9
:103AB000049B9B190493029B9B190293DDE7039BD4
:103AC0000C229B5E002BDED021000198FFF748FFFF
:103AD0000028D8D138236343019AD518AB6A002B4C
:103AE000B8D1039B0C21595E0029B3D10B000A0009
:103AF0002000062C05DCFFF7E9FC0020FFF7C2F8E8
:103B0000A8E7FFF749FDF8E710B5054C2000FFF7DF
:103B100025FE044A0449200013F062F810BDC04697
:103B2000703F0020000000204D37000010B50368F2
:103B30009C6B0123A04710BD8C2300229B00C15425
:103B4000103BC3185A609A60DA600123837570478E
:103B500010B5036801211B6B984710BDF8B505002F
:103B60000E0017000024BC4208D02B68315D1B6892
:103B700028009847002801D00134F4E72000F8BD60
:103B8000FC30406A704770478E239B00C1507047DD
:103B90008D239B00C15070470300FC335A6A002AF2
:103BA00003D01B6AC018007E704701204042FBE72B
:103BB00070B5060018250C49006910F06FFB3069DC
:103BC00010F0ADF92B000821307D084C4343E31879
:103BD000595612F057FF0821707D4543641961560C
:103BE00012F050FF70BDC046A0860100ACF7010086
:103BF00070B504000D00006910F0A6F929002069D5
:103C000010F04CFB206910F08AF970BD10B5006906
:103C100010F09AF910BD0000F7B50193FA23802641
:103C2000002504009B008360134B760008330F00CF
:103C300045602900009203603200183015F069FADF
:103C400023002000FC332530DD6132001D62290095
:103C50005D62FF3015F05DFA88239B00E3185D601C
:103C60009D60DD606B461B78276123756B461B7971
:103C7000A57520006375FEBD88AA010070B5060019
:103C80001825006910F0E5FA306910F048F92B00AA
:103C90000821307D064C4343E318595612F0F2FEDA
:103CA0000821707D45436419615612F0EBFE70BD2A
:103CB000ACF7010010B50022FFF7E0FF10BD0300D4
:103CC000802210B5FC33DC685200944208D05A6858
:103CD00081545A680132D2B25A60DA680132DA602D
:103CE00010BDF7B50400171E019302D1002528006E
:103CF000FEBD03000022FC33DA611A625A620069D9
:103D0000013210F053F9061EF0D023002069183359
:103D1000009310F0DEF901000098FFF7D0FF0125B5
:103D20002069BD4214D010F0B2F900280FD02069EC
:103D300010F01CF90221206910F022F9206910F01E
:103D4000C8F901000098FFF7BAFF0135E8E706005F
:103D5000206910F003F9019B002B06D0002E06D03D
:103D60000321206910F00CF9C1E7002EBFD1013DFD
:103D7000BDE7002310B5827D9A420CD088229200C4
:103D80008218D46880225200944204D02530FF303B
:103D9000FFF795FF0123180010BD0300FC33DA681C
:103DA000002A09D09A68805C9A680132D2B29A607F
:103DB000DA68013ADA60704701204042FBE70022EE
:103DC0008C2370B59B00827504000E00C15C0069F5
:103DD00010F0ECF8002806D10321206910F0D0F88B
:103DE0000225280070BD88239B00E318DD68002DA4
:103DF00011D020002530FF302569FFF7CEFFC1B27A
:103E0000280010F015F90028EDD10321206910F0E9
:103E1000B7F80325E5E7002EE3D00321206910F071
:103E2000AFF8DEE710B51830FFF7B7FF10BD70B57B
:103E30000400006910F022F9002815D0206910F064
:103E400034F9002811D0206910F090F8032120697E
:103E500010F096F88E239B00E558002D35D10023F5
:103E6000FC34E3612362636270BD206910F027F9BE
:103E7000002809D0206910F01DF9002804D020691D
:103E800010F022F90028DED0206910F018F900287F
:103E900021D1206910F004F90028E5D0206910F044
:103EA00013F9002833D088239B00E318DB68FF2137
:103EB000002B05D020002530FF30FFF76EFFC1B288
:103EC000206910F0CDF8A075CEE7236820001B69AB
:103ED0009847A847C3E7206910F048F820690321F4
:103EE00010F04EF8206910F0EFF80028BCD08823BD
:103EF00000229B00E3185A609A60DA600123A375E0
:103F00008D239B00E3589342AED09847ACE7230043
:103F1000FC335A6A802320695B009A4206D110F074
:103F20001DF80321206910F02BF89DE710F0D1F85F
:103F3000010020001830FFF7C2FE206910F016F8CB
:103F4000EFE7000010B50248FFF771FF10BDC04653
:103F5000DC41002010B50248FFF769FF10BDC046E4
:103F60001844002010B510230F2205490548FFF71B
:103F700053FE1223112204490448FFF74DFE10BDE1
:103F8000A4550020DC410020B45500201844002036
:103F900010B50400034B0833036000F003FB20005E
:103FA00010BDC046D8AA010010B50400FFF7F0FF0D
:103FB000200012F091FB200010BD243070B51D00D0
:103FC000040000F0CFFF2A002000049B059900F0B8
:103FD000D5FF012070BD1D30FF3070B51D000400FD
:103FE00000F0C8FE2A002000049B059900F0CEFED8
:103FF000012070BD102210B50400110000F0BAFAC3
:10400000024B20000833236010BDC046D8AA01002F
:1040100010B5054C2000FFF7EDFF044A04492000CD
:1040200012F0DEFD10BDC046544600200000002006
:10403000913F0000704710B5040012F04DFB2000C6
:1040400010BD436810B5181E00D0984710BD000081
:10405000054B0648083310B503600023044A0549A0
:10406000436012F0BDFD10BDF0AA010068480020B9
:10407000000000203540000013B56B460268D9717E
:104080000733546819000122A04716BD13B56B46CB
:10409000DC1D036801225B6A21009847012801D1D9
:1040A000207816BD01204042FBE710B50069036887
:1040B0001B6B984710BD036870B5DB6A04000D00E8
:1040C00016009847002809D0236832005B6A29004F
:1040D00020009847431C03D1002001E0012040420A
:1040E00070BD036870B5DB6A04000D0016009847C8
:1040F000002807D0236832005B6829002000984719
:10410000002801D10120404270BD00000B4B10B5CA
:1041100008330360030054331B780400002B06D0DF
:10412000806B002803D014F0ADFF0023A363606B05
:10413000002801D014F0A6FF200010BD84C50100A6
:1041400010B50400FFF7E2FF200012F0C5FA2000CE
:1041500010BD0000F8B505000F0016000024B442A1
:104160000AD20B4B321B3900E8180DF080F90028F9
:104170000BDB3F182418F2E7B44206D1044BE818D1
:104180000DF097F9C043C01704402000F8BDC046A9
:10419000D43B000010B50400044BC0180DF089F9A1
:1041A00020690368DB68984710BDC046D43B000017
:1041B000044B10B5C0180DF003F9C343DB171840CA
:1041C00010BDC046D43B000010B5024BC0180DF026
:1041D000D3F810BDD43B000013B56B46DC1D064B75
:1041E0000122C01821000DF00FF9012801D120781B
:1041F00016BD01204042FBE7D43B000010B504008F
:1042000000690368DB6A9847002807D0200058300F
:104210000BF016FD0138431E9841C0B210BD0000DE
:1042200010B5040000690368DB6A984700280DD0C8
:10423000200058300BF004FDC30703D4044BE018F2
:104240000DF042F9206903689B6A984710BDC0468B
:10425000D43B000083610F4B30B5FA2503620E4B4F
:10426000002443620300AD0085600C4D54330835D3
:1042700005604460016142610477446304658462BF
:10428000C46204638463C463046444648464C46473
:104290001C7030BDA52D0100692D010084C50100F1
:1042A00010B504001023024AFFF7D4FF200010BD10
:1042B00014B20100F0B5050004005A4B91B0583516
:1042C00042690791C118836928000BF087F8564AA4
:1042D000564BA118564AE31800922800554A0BF095
:1042E0008DFA554E08AF30000EF0BCFE002809D103
:1042F0000026FF21002011F0EEFCB8550136202EDB
:10430000F7D10BE030000EF098FF0028F0D020220B
:10431000390030000EF0A5FF0028E9D02022390036
:1043200028000BF00DFB236A444A4549A350454A37
:104330006118A2580B60444BE3181A60E36B002B22
:104340002ED0666B002E5CD03300FC33DB6B002B71
:1043500026D191239B00F75C022F14D1236D059386
:1043600004F09CFA069006F009FD069B059A02935C
:104370003023009333000390019721002800383147
:104380000AF03AFF0CE0012F0AD1276D09F092F8EC
:104390002100009033003A00383128000AF0A6FFCF
:1043A0000022079928000AF0C9FF2848FFF749FEB4
:1043B000274B2849E618070012F02EFC264B25490A
:1043C000C0187063380012F0ADFC244BB163244A6E
:1043D000E61823693000019300922900214A0CF06D
:1043E000C3FF30000DF065F80826012428000BF00B
:1043F00027FC0300334012D12042F7D0180011B03F
:10440000F0BD266D04F04AFA636A3200039302237A
:1044100001932E330093230002902833ADE701204F
:10442000EDE7C046A80D0000901900007F3900009C
:1044300055020000EF1F0000584D0020640D0000E1
:10444000841900005C0D00008819000068480020F5
:10445000A40E000080510100A8FA0A00D43B00001D
:10446000E3400000B7400000F0B5036989B09C4606
:104470001B680192DE690B4B0C1D029303AB050018
:1044800085CC85C3246860461C600B7D02A90B7532
:10449000019AB047002803D000212800FFF70AFF47
:1044A00009B0F0BD04FC010070B5050000690C0006
:1044B00003681B6A9847002808D02B7F28005A42BF
:1044C00053415B421C402100FFF7F4FE70BD000029
:1044D00010B50400034B0833036000F063F82000BC
:1044E00010BDC046C8C5010010B50400FFF7F0FFBD
:1044F000200012F0F1F8200010BD243070B51D002E
:10450000040002F039FB2A002000049B059902F008
:104510003FFB012070BDAD30FF3070B51D000400C1
:1045200002F004FB2A002000049B059902F0CAFA5D
:10453000012070BD082210B50400110000F01AF827
:10454000024B20000833236010BDC046C8C50100DF
:1045500010B5054C2000FFF7EDFF044A0449200088
:1045600012F03EFB10BDC046704800200000002045
:10457000D144000070B50400094B0D0008330360FE
:1045800061608260100014F073FDE061280014F097
:104590006FFDE060280014F06BFD6061200070BDCD
:1045A000E0C501000C4B10B5083304000360C0687F
:1045B000002803D014F066FD0023E360E0690028C2
:1045C00003D014F05FFD0023E3616069002801D08F
:1045D00014F058FD200010BDE0C5010010B5040026
:1045E000034B0833036000F095F8200010BDC0466F
:1045F000F8C5010010B50400FFF7F0FF200012F02D
:104600006BF8200010BD10B5283008F057F90120D4
:1046100010BD10B5283008F0F1FA012010BD10B51A
:10462000283008F01DFB012010BD000010B504006B
:104630001022402100F054F8024B20000833236080
:1046400010BDC046F8C5010010B5054C2000FFF7AD
:10465000EDFF044A0449200012F0C2FA10BDC04622
:10466000A84B002000000020DD4500004369C06920
:10467000181A7047036810B51B6904009847002892
:1046800005D0E369A269591CE161D05C10BD01202D
:104690004042FBE7036810B51B69040098470028F7
:1046A00003D0A269E369D05C10BD01204042FBE762
:1046B000704713B56B460268D97107335468190007
:1046C0000122A04716BD036870B59B6A050014005F
:1046D0009847002802D1012304006B60200070BDC0
:1046E000002370B54360FA2304009B008360084BED
:1046F0000D000833036021614261C261100014F0B3
:10470000B7FCA061280014F0B3FC2062200070BD4B
:1047100030C60100094B10B5083304000360006A7D
:10472000002803D014F0AEFC00232362A069002807
:1047300001D014F0A7FC200010BDC04630C6010017
:1047400010B50400034B08330360FFF7E3FF2000BC
:1047500010BDC04668C6010010B50400FFF7F0FFA9
:10476000200011F0B9FF200010BD10B5283009F06D
:1047700033F9012010BD10B5283009F0EBFA012003
:1047800010BD10B5283009F017FB012010BD000046
:1047900010B5040014224021FFF7A2FF024B2000B5
:1047A0000833236010BDC04668C6010010B5054C33
:1047B0002000FFF7EDFF044A0449200012F010FA30
:1047C00010BDC046304C00200000002041470000D2
:1047D00010B50400034B08330360FFF79BFF200074
:1047E00010BDC046A0C6010010B50400FFF7F0FFE1
:1047F000200011F071FF200010BD10B528300AF024
:10480000A7F9012010BD10B528300AF0F1FB0120F6
:1048100010BD10B528300AF076FC012010BD000054
:1048200010B5040020224021FFF75AFF024B200060
:104830000833236010BDC046A0C6010010B5054C6A
:104840002000FFF7EDFF044A0449200012F0C8F9E8
:1048500010BDC046C04C002000000020D147000021
:104860000269F0B51400836897B05C40C16909948F
:10487000446886694C4003940C0054400A940C0030
:1048800045695C400494046875406C400090019454
:1048900003985440099A0D9442400B92019A019852
:1048A0004A400E92009A526842400F920F98049A22
:1048B00042401092009A0B98D268424053400593B0
:1048C000009B72401B680598039C434011930300B2
:1048D0006B4006930A9B0A9E53400793009B0798E0
:1048E0001B68049F43401293069B964343401393D7
:1048F00003006B4008930B9D059B13981D40089B7C
:104900006A401C40099B034006987340074077406B
:104910001198109E06405640009A0D9812685E400D
:104920000240049842400698424000985540406832
:10493000019A7D4082430398424008984240624079
:10494000414053404C40129A0E99180011404C407F
:104950007C40270031001E4077403A0069400A4001
:104960006A406040754005402000684075402C401A
:1049700043406340029018007C401440614048402E
:104980000C901000484084460298029D58401490B4
:104990000098029C00680C9F284015906046089D76
:1049A00054400540089565460198139E08400190C3
:1049B000129867401040129010983E401840109096
:1049C000039828408446099838400A9F039027405E
:1049D000784009900F980140129848400A90059934
:1049E0001498159F01400898089D41406046474033
:1049F0004F4005970998019F47400798044065403C
:104A00000C98069C75400440664014980B9C7E40B0
:104A10000440109844400E98674002400598019C5D
:104A2000424011986C4003407B4059406F40CD4359
:104A3000724065405440E4430098F643C761856185
:104A4000049F0C98074003984740674064460098CD
:104A5000476101611599129841404B400099CB6024
:104A60000D9B02990B4010994B405A40009B0999AD
:104A70009A600A9B5C40009B66405E60059B5940C3
:104A8000C9430A9B5940009B196017B0F0BD000054
:104A90000268F0B516004E4C4E49456852086B004E
:104AA00022400D402A43856826400B4033432E00A8
:104AB000C76887B001926D087A0026400F400A400F
:104AC000254032433D4346690295056977002540FC
:104AD0000F402F4305690E406D082540354303956F
:104AE000C56900936E0085690E402540354386698F
:104AF00076082640C46921400E43374CB4469600E0
:104B0000264033003549009E22400E401E43009B44
:104B100004969B080B4013430093029B9A00019B51
:104B200022400B401A4305923A00019B0A409E081E
:104B3000029B0E4023401E43AB00234013436246BA
:104B40000196039E92000E4022403243039EBF080E
:104B5000B6080F4031406646254034402143204C82
:104B60003D431F01274002933B001E4E049F3740E8
:104B70003B43049F0360029B3F09374023403B4374
:104B8000059F03611301374023403B434360059B6E
:104B900022401B0933401A434261009A2B013240E4
:104BA000234013438360009B25401A09324015437C
:104BB000019A0B01324023401343C360019B214003
:104BC0001B091E4031438561C16107B0F0BDC0467D
:104BD00055555555AAAAAAAACCCCCCCC33333333DD
:104BE000F0F0F0F00F0F0F0F00B589B000900190BA
:104BF0000290039004900590069007906846FFF796
:104C000047FF6846FFF72CFE6846FFF741FF009814
:104C100009B000BDF0B5FFB00490182A06D0202AD4
:104C200038D00027102A32D10A2700E00C270020B4
:104C30007B1C9B00019303009408A3422CDB0025FE
:104C40002E00E30006AA9B180293009563190393B4
:104C5000019B6219934232DC0025E80006AC001982
:104C6000FFF716FF019B0435AB42F6DC0023274E0D
:104C7000274DD900621852680959324029400A4329
:104C8000049998000A50019A01339A42F1DC3800E5
:104C90007FB0F0BD0E27CAE79A00565C8A18557897
:104CA00090782D022E4300040643D07806AD00060E
:104CB000DA00304350510432A8500133BDE7002ED2
:104CC0001CD10823D841FFF78FFF124B009A9B5C41
:104CD0005840EB0006AA9A58013650400592029AB5
:104CE000D050039B06AADB000433D050B44203D15A
:104CF0000026009B013300930135A7E7062CE8DD71
:104D0000042EE6D1FFF770FFE3E7C046AAAAAAAADD
:104D100055555555D8C601000131F0B50901094D69
:104D2000094E89188A4200D1F0BD08CA1F002F40E1
:104D30007C003C43334004605C08234343600830FC
:104D4000F0E7C04655555555AAAAAAAA0B0A017004
:104D500043700B0C090E8370C17070474378027862
:104D60001B021A438378C0781B04134300061843C0
:104D700070470000044B10B5040008C0FFF74AFF5D
:104D8000F434206010BDC046E4C60100F0B51E003A
:104D900003000D00684CF433A54419680790140013
:104DA000021D1AA8FFF7B8FF2800FFF7D7FF2B1D39
:104DB000070018000D93FFF7D1FF2B000833009078
:104DC00018000893FFF7CAFF2B000C33019018005E
:104DD0000993FFF7C3FF103402902300103B0A939E
:104DE000002E67D00A98FFF7B9FF23000C3B039011
:104DF000129018000B93FFF7B1FF2300083B0490BB
:104E0000149018000C93FFF7A9FF231F059016902C
:104E100018000693FFF7A2FF069018901F2E5DD989
:104E20002000FFF79BFF1390201DFFF797FF1590C1
:104E300020000830FFF792FF179020000C30FFF79A
:104E40008DFF1990139B12A81093159B0E93179B1F
:104E50000F93199B1193FFF71BFE079B12AAF433C4
:104E600018681AA900F0ACFD12A8FFF711FE1299FC
:104E70000A987940FFF76AFF149B00990B985940F4
:104E80000A93FFF763FF169B01990C985940009312
:104E9000FFF75CFF189B0299201F59400093FFF712
:104EA00055FF1F2E20D8069B039F0293059B01935D
:104EB000049B009339002800FFF748FF00990D98E4
:104EC000FFF744FF01990898FFF740FF02990998FE
:104ED000FFF73CFF93239B009D44F0BD00231393F9
:104EE000159317931993ADE7139B0399200059402D
:104EF0000093FFF72BFF159B0499201D5940009349
:104F0000FFF724FF2000179B0599083059400093B4
:104F1000FFF71CFF20001999069B0C304B4019002D
:104F2000FFF714FF119B203E02930F9B2034019347
:104F30000E9B109F009350E7B4FDFFFF0B0A01701A
:104F400043700B0C090E8370C17070474378027870
:104F50001B021A438378C0781B04134300061843CE
:104F600070470000044B10B5040008C0FFF752FE64
:104F7000F434206010BDC046F8C60100F0B5424CC4
:104F8000A544099300230B930D930F9311930300F2
:104F9000F4330290009108921968021D12A8FFF7DD
:104FA000BBFE0098FFF7D2FF009B070004331800F8
:104FB0000393FFF7CBFF009B060008331800049310
:104FC000FFF7C4FF009B05000C3318000593FFF7A3
:104FD000BDFF089C0190089B099A9B18A34213D11E
:104FE00039000098FFF7AAFF31000398FFF7A6FFEA
:104FF00029000498FFF7A2FF01990598FFF79EFF8B
:105000008B239B009D44F0BD2000FFF79FFF47408E
:10501000201D0A97FFF79AFF230008334640180027
:105020000C960693FFF792FF23000C3345401800BF
:105030000E950793FFF78AFF019B584010900AA82E
:10504000FFF726FD029B0AAAF433186812A900F0A4
:105050000EFE0AA8FFF71CFD0A9F109B0C9E200065
:105060000E9D39000193FFF769FF201D3100FFF706
:1050700065FF29000698FFF761FF01990798FFF780
:105080005DFF1034A7E7C046D4FDFFFF0B0A017097
:1050900043700B0C090E8370C1707047437802781F
:1050A0001B021A438378C0781B041343000618437D
:1050B00070470000044B10B5040008C0FFF7AAFDBC
:1050C000F434206010BDC0460CC70100F0B53E4C62
:1050D0000D00A54405930300F433196800901400F3
:1050E000021D16A8FFF718FE2800FFF7D7FF029051
:1050F000281DFFF7D3FF039028000830FFF7CEFFED
:10510000949D0490059B949A9F187F1B002D4BD073
:10511000029B06A807930693039B0EAE0993089380
:10512000049B0B930A9323BA0C93631C01931BBA41
:105130000D93FFF7ADFC009B06AAF433186816A97F
:1051400000F095FD06A8FFF7A3FC06993000FFF7D5
:105150009DFF08990FA8FFF799FF0A9910A8FFF77C
:1051600095FF0C9911A8FFF791FF079912A8FFF777
:105170008DFF099913A8FFF789FF0B9914A8FFF772
:1051800085FF0D9915A8FFF781FF0023202D10D86A
:10519000F95CF25C4A40FA5401339D42F8D1102D7B
:1051A00001D9A31C0193019C20008F239B009D44E7
:1051B000F0BDF95C9A5D4A40FA540133202BF8D1D6
:1051C000203D02349EE7C046C4FDFFFF0B0A01707C
:1051D00043700B0C090E8370C17070470B0E037087
:1051E0000B0C43700B0A8370C170704743780278D0
:1051F0001B021A438378C0781B041343000618432C
:105200007047437802781B021A438378C0781B04E6
:1052100013430006184300BA704700BA70470023D2
:1052200030B5C45CCD5C6C40C45401339A42F8D1B3
:1052300030BD0000044B10B5040008C0FFF7EAFCC5
:10524000F434206010BDC04620C70100F0B5654CA5
:10525000A54408930300F43303900191099219685F
:10526000021D1AA8FFF758FD0198FFF7CAFF019B1E
:105270000090043318000493FFF7C3FF019B06005E
:10528000083318000593FFF7BCFF019B05000C33A2
:1052900018000693FFF7B5FF0400089F099B089AC2
:1052A0009B18DB1B0793002F7FD00098FFF7B5FFFB
:1052B0000A903000FFF7B1FF0C902800FFF7ADFF18
:1052C0000E902000FFF7A9FF631C02932300621CCD
:1052D0009343DB0FED186A1EAA43D2171340F6184A
:1052E000721EB243D2171340009A1090D3181800C0
:1052F0000093FFF792FF0B903000FFF78EFF0D90A9
:105300002800FFF78AFF0F90601CFFF786FF1190BF
:10531000102F15D9A31C029302235B421C1B029B76
:105320001C43E443E40F2D196B1EAB43DB171C40F9
:105330003619731EB343DB171C40009B1B190093E7
:105340000AA8FFF7A5FB039B0AAAF43318681AA959
:1053500000F08DFC0AA8FFF79BFB0A9912A8FFF743
:1053600035FF0C9913A8FFF731FF0E9914A8FFF72A
:105370002DFF109915A8FFF729FF0B9916A8FFF725
:1053800025FF0D9917A8FFF721FF0F9918A8FFF720
:105390001DFF119919A8FFF719FF202F19D83A00FE
:1053A00012A90798FFF73BFF029C00990198FFF7AD
:1053B00015FF31000498FFF711FF29000598FFF74A
:1053C0000DFF21000698FFF709FF93239B009D44E2
:1053D000F0BD202212A90798FFF721FF203F029C71
:1053E0005CE7C046B4FDFFFFF0B5384C0D00A544A6
:1053F00007930300F433196802900592021D10A868
:10540000FFF78AFC2800FFF7F1FE2B1D07001800AC
:105410000693FFF7EBFE2B000833060018000393FA
:10542000FFF7E4FE2B000C33009018000493FFF705
:10543000DDFE0023059C019009930B930D930F93C0
:10544000059B079A9B18A34213D139002800FFF748
:10545000BDFE31000698FFF7B9FE00990398FFF7EB
:10546000B5FE01990498FFF7B1FE89239B009D4486
:10547000F0BD2000FFF7BAFE4740201D0897FFF758
:10548000B5FE4640200008300A96FFF7AFFE009BAD
:1054900058400C9020000C30FFF7A8FE019B103400
:1054A00058400E9008A8FFF7F3FA029B08AAF433BD
:1054B000186810A900F0DBFB08A8FFF7E9FA0C9BBD
:1054C000089F00930E9B0A9E0193B9E7DCFDFFFF46
:1054D000F0B58B4CA54402930300F433089005917A
:1054E00006921968021D1EA8FFF716FC0598FFF723
:1054F00088FE059B0790043318000993FFF781FE8F
:10550000059B0390083318000A93FFF77AFE059B6A
:1055100004900C3318000B93FFF773FE05000698F8
:10552000FFF764FE069B0190043318000C93FFF70D
:105530005DFE069B0700083318000D93FFF756FE2B
:10554000069B06000C3318000E93FFF74FFE012355
:10555000040010939C9B002B00D198E00798FFF764
:105560005CFE16900398FFF758FE18900498FFF71A
:1055700054FE1A902800FFF750FE6B1C11939D43B8
:10558000049BED0F5B190493049A013B9343DB17D3
:105590001D40039B1C905B190393039A013B9343AB
:1055A000DB171D40079B16A85B190793019B1997F2
:1055B00017931B961D94FFF76BFA089D16AAF435F6
:1055C0001EA9286800F053FB16A8FFF761FA02989D
:1055D000FFF70CFE169B43400F931693029B043378
:1055E00018001293FFF702FE189B5840029B189078
:1055F000083318001393FFF7F9FD1A9B5840029BDC
:105600001A900C3318001493FFF7F0FD1C9B0F99B0
:1056100058401C9002981593FFF7D8FD18991298DE
:10562000FFF7D4FD1A991398FFF7D0FD1C99149831
:10563000FFF7CCFD029B1099103302939C9B169AA6
:10564000103B9C93189B002945D05F401A9B019901
:105650000F935E401C9B514001915C409C9B002B32
:1056600049D1019B16A8169318971A961C94FFF718
:105670000FFA286816AA1EA900F0F9FA16A8FFF773
:1056800007FA169B189F1A9E1C9C119D019307995F
:105690000598FFF7A3FD03990998FFF79FFD04996B
:1056A0000A98FFF79BFD29000B98FFF797FD0199DA
:1056B0000698FFF78BFD39000C98FFF787FD310046
:1056C0000D98FFF783FD21000E98FFF77FFD9723CC
:1056D0009B009D44F0BD17991D9C5140199A019162
:1056E00017005F401A9B1C9A0F930F9E1B9B544000
:1056F00010935E40B2E70023119D10932AE7C04645
:10570000A4FDFFFFF0B5684CA5440E930300F433ED
:105710000790009101921968021D1CA8FFF7FCFA7E
:105720000098FFF76EFD009B029004331800089369
:10573000FFF767FD009B0700083318000993FFF788
:1057400060FD009B06000C3318000A93FFF759FD1B
:1057500004000198FFF74AFD019B039004331800F1
:105760000B93FFF743FD019B0490083318000C9343
:10577000FFF73CFD019B05900C3318000D93FFF7DC
:1057800035FD0E9D06900E9B9A9A9B18AB4223D135
:1057900002990098FFF722FD39000898FFF71EFDD7
:1057A00031000998FFF71AFD21000A98FFF716FD4E
:1057B00003990198FFF70AFD04990B98FFF706FD7E
:1057C00005990C98FFF702FD06990D98FFF7FEFC6E
:1057D00095239B009D44F0BD0298FFF71EFD149099
:1057E0003800FFF71AFD16903000FFF716FD1890ED
:1057F0002000FFF712FD631C9C43E40F36190F9342
:10580000731EB343DB171C403F197B1EBB43DB17E2
:105810001C40029B1A901B1928000293FFF7E6FC1C
:10582000039B4340281D1593FFF7E0FC049B434076
:10583000280008301793FFF7D9FC059B58401990B2
:1058400028000C30FFF7D2FC069B58401B9014A890
:10585000FFF71EF9079B14AAF43318681CA900F07F
:1058600006FA14A8FFF714F9149910A8FFF7AEFC74
:10587000169911A8FFF7AAFC189912A8FFF7A6FC21
:105880001A9913A8FFF7A2FC2800102210A9FFF70D
:10589000C6FC159B10350393179B0F9C0493199B13
:1058A00005931B9B06936EE7ACFDFFFF002310B52D
:1058B000C258CC586240C2500433202BF8D110BDDE
:1058C0000300F7B520330193FC23C0271B02F0250A
:1058D0009C46FF26BF002D0462460368F024990011
:1058E00011409A093A4011431A00324011431A01FB
:1058F0002A40114324031A0922400A439901890FBF
:1059000089071143FC229B08920513400B4308C0F2
:10591000019B8342E0D1F7BDF8B5040022696168BC
:10592000A669514071408568E769C068E1612168F6
:10593000636941408C465940A1612900514079403A
:10594000616161687A40484021687040694059400F
:10595000E1606168DB43C9434A40A26062467D4022
:1059600056405D402061666025602000FEF778FFAC
:1059700022696168A66951407140E769E068E161A8
:1059800021686369A56841408C465940A16129009E
:1059900051407940616161687A40484021687040B7
:1059A00069405940E1606168DB43C9434A40A260F5
:1059B00062467D4056405D40666025602061F8BDCE
:1059C000F0B5050091B00C910C9B410159181000E5
:1059D0001400FFF76BFF6B1E0793079B2000002B43
:1059E0000AD1FFF76DFF2000FFF796FF0C9920000A
:1059F000FFF75CFF11B0F0BDFFF762FF2000FFF77B
:105A00008BFF079B200059010C9B5918FFF74EFF95
:105A10000820636821680893A3680A000293E3687A
:105A2000C24109932369E5690A936369C5410193FA
:105A3000A369019E9C46089BC641C3410393029BF8
:105A40000B92C3410493099B019AC34105930A9B9E
:105A5000E769C34106936346C341604642400D92E5
:105A60000B98019A70404A400E9247400D9A6F4041
:105A70005740624650400E9A50401022D041474055
:105A800027600898019F7840E7697840039F784035
:105A900070405840D0410B9A574077400E9A5F4073
:105AA0006F405740474067600898029F48407940E0
:105AB000674610227940049F794059406940D1419E
:105AC000039F049A5740624657405F406F404740EB
:105AD0007940A160099F01994F40E16951400E91C1
:105AE000019A02995140624651400B9A5140049AE2
:105AF0005140059A5140714041400F910E9A0B99C7
:105B000051400A0005994A4072406A4050401022B4
:105B10007840D0410F99019A4140E160029808997C
:105B200041400A98504008900598039A42400698D0
:105B3000424072405A406A407A40039F4A40474080
:105B4000E0694740102077405F404F4008994F4040
:105B5000C74102997A40099F22617940674608004F
:105B60000A99049A7940049F72407940069F5A40EE
:105B7000794071400D9F59406A4069407A404140E8
:105B800042401020C2414A40626109990A9AE7697D
:105B90004A4001997940059F79404E400E995E40F8
:105BA000794059406E40694056405140069AC14183
:105BB000534062465340089A6B405340069A7140E6
:105BC0005540E269A1615540089A5540C5416B4076
:105BD000E361079B013BFFE60A68036853400360EB
:105BE0004A684368534043608A68836853408360CF
:105BF000CA68C3685340C3600A69036953400361BC
:105C00004A694369534043618A69836953408361A8
:105C1000CB69C2695340C36170470300F7B5FC27E5
:105C2000C026FF2520330193BF0136020368F0240C
:105C30009A08990131403A400A43190029400A4321
:105C4000240319092140F0240A43240419012140A6
:105C5000C0240A43A40499099B0021409B0E9B0683
:105C60000A431A43019B04C08342DFD1F7BDF0B55C
:105C70008BB00990100002911400FFF7ADFF0123D3
:105C8000082510260193019B099A200093420DD309
:105C9000FEF7E6FD2000FFF7C0FF099B2000590139
:105CA000029B5918FFF798FF0BB0F0BDFEF7D8FD27
:105CB0002000FFF7B2FF6268E169EA419446A268FA
:105CC0002068EA410392E2680300EA4104922269F3
:105CD000EB41EA41059262690F00EA410692A2692E
:105CE0005840EA4107920A00EA41574008977B4032
:105CF0000700F7417B402360634667685F4053407D
:105D00004B4043403800F04143406360A068039B30
:105D100058405F400300F3415F40A760049BE76881
:105D20005F4053404B4058403B00F3414340E360E9
:105D30002069059B584053404B407B4019000300AD
:105D4000F3414B4023616169069B594058400B0069
:105D5000F34158406061079BA069594058400300D7
:105D6000F3415940A161089B4240F3415A40019BD5
:105D7000E2615901029B20005918FFF72DFF019B9A
:105D8000013301937FE7016070470000F0B58DB0EB
:105D9000139B02920193159B073A0393040006910B
:105DA000129D149F169B062A02D900200DB0F0BD4B
:105DB0001A1F0C2AF9D801261E40F6D10F2202998B
:105DC0008364521A0592019A023B2A43511E8A416A
:105DD00005999B000139C9B292010B43134308AAEC
:105DE000137008AB0491581C029A069913F075F9C8
:105DF00008AB0793079B9B1BDF73039B3F0A1B06A4
:105E00001F43039B01361B0A0393059BB342F1D149
:105E100003993943C9D1270014371022380013F0F1
